:100000000C945A010C9482010C9482010C9482018C
:100010000C9482010C9482010C9482010C94820154
:100020000C9482010C9482010C9482010C94820144
:100030000C9482010C9482010C9482010C94820134
:100040000C9428060C9482010C94F6050C94D005AF
:100050000C9482010C9482010C9482010C94820114
:100060000C9482010C9482010000000024002700FF
:100070002A0000000000250028002B0000000000DE
:1000800023002600290004040404040404040202DA
:100090000202020203030303030301020408102007
:1000A0004080010204081020010204081020000012
:1000B0000008000201000003040700000000000027
:1000C0000000007CFE928AFE7C00008088FEFE809C
:1000D000800000C4E6A2929E8C000044C69292FE6C
:1000E0006C0000302824FEFE2000004ECE8A8AFAE2
:1000F0007200007CFE9292F66400000606E2FA1E90
:100100000600006CFE9292FE6C00004CDE9292FEA5
:100110007C000040E8A8A8F8F00000FEFE9090F0F7
:1001200060000070F88888D850000060F09090FE61
:10013000FE000070F8A8A8B830000020FCFE2226BF
:1001400004000018BCA4A4FC7C0000FEFE1010F00B
:10015000E000000080F4F48000000060E080FA7AA3
:10016000000000FEFE2070D88800000000FEFE00A7
:10017000000000F8F830E030F8F800F8F81818F847
:10018000F0000070F88888F8700000FCFC24243C23
:10019000180000183C24FCFC80C000F8F80808385F
:1001A00030000090A8A8A8A84800001010FCFC107F
:1001B00010000078F88080F8F800003070C0C0703F
:1001C00030000078F880F080F8780088D87070D817
:1001D00088000018B8A0A0F878000000C8E8B89817
:1001E000000000FCFE1212FEFC0000FEFE9292FED9
:1001F0006C00007CFE8282C6440000FEFE8282FE0D
:100200007C0000FEFE929292820000FEFE1212120C
:100210000200007CFE82A2E6640000FEFE1010FEDA
:10022000FE00000082FEFE8200000060E082FE7E92
:10023000020000FEFE386CC6820000FEFE80808058
:10024000800000FEFE0C180CFEFE00FEFE0C1830B6
:10025000FEFE007CFE8282FE7C0000FEFE22223E2C
:100260001C00003C7E4262FEBC0000FEFE3272DEDC
:100270008C00004CDE9292F66400000602FEFE0244
:100280000600007EFE8080FEFE00003E7EC0C07E36
:100290003E0000FEFE603060FEFE00C6EE38103804
:1002A000EEC6000E1EF0F01E0E0000C2E2B29A8EE4
:1002B0008600720611241FBECFEFD8E0DEBFCDBF8F
:1002C00011E0A0E0B1E0E4EBFFE102C005900D9287
:1002D000A036B107D9F722E0A0E6B1E001C01D9237
:1002E000A136B207E1F711E0CAE5D1E004C02197D9
:1002F000FE010E94D20FC935D107C9F70E949F069F
:100300000C94D80F0C940000AF92BF92CF92DF9262
:10031000EF92FF920F931F93CF93DF936C017B01BA
:100320008B01040F151FEB015E01AE18BF08C0174B
:10033000D10759F06991D601ED91FC910190F081BE
:10034000E02DC6010995892B79F7C501DF91CF9181
:100350001F910F91FF90EF90DF90CF90BF90AF90E3
:100360000895FC01538D448D252F30E0842F90E0BB
:10037000821B930B541710F0CF96089501970895A0
:10038000FC01918D828D981761F0A28DAE0FBF2F69
:10039000B11D5D968C91928D9F5F9F73928F90E0BF
:1003A00008958FEF9FEF0895FC01918D828D98172E
:1003B00031F0828DE80FF11D858D90E008958FEF6B
:1003C0009FEF0895FC01918D228D892F90E0805C34
:1003D0009F4F821B91098F73992708958BE691E0B7
:1003E0000E94E20121E0892B09F420E0822F089588
:1003F00080E090E0892B29F00E94EE0181110C949D
:1004000000000895FC01A48DA80FB92FB11DA35AB7
:10041000BF4F2C91848D90E001968F739927848F24
:10042000A689B7892C93A089B1898C918370806447
:100430008C93938D848D981306C00288F389E02DE8
:1004400080818F7D80830895EF92FF920F931F9399
:10045000CF93DF93EC0181E0888F9B8D8C8D981377
:100460001AC0E889F989808185FF15C09FB7F89483
:10047000EE89FF896083E889F989808183708064CF
:1004800080839FBF81E090E0DF91CF911F910F911A
:10049000FF90EF900895F62E0B8D10E00F5F1F4F29
:1004A0000F731127E02E8C8D8E110CC00FB607FC38
:1004B000FACFE889F989808185FFF5CFCE010E94C6
:1004C0000202F1CFEB8DEC0FFD2FF11DE35AFF4F30
:1004D000F0829FB7F8940B8FEA89FB898081806254
:1004E000CFCFCF93DF93EC01888D8823B9F0AA8911
:1004F000BB89E889F9898C9185FD03C0808186FDDF
:100500000DC00FB607FCF7CF8C9185FFF2CF80812D
:1005100085FFEDCFCE010E940202E9CFDF91CF919E
:100520000895833081F028F4813099F08230A9F069
:1005300008958730A9F08830C9F08430B1F48091F3
:1005400080008F7D03C0809180008F778093800032
:10055000089584B58F7784BD089584B58F7DFBCFD2
:100560008091B0008F778093B00008958091B000A3
:100570008F7DF9CFCF93DF93282F30E0F901E2553B
:10058000FF4F8491F901E656FF4FD491F901EA57E4
:10059000FF4FC491CC23A1F081110E949102EC2F56
:1005A000F0E0EE0FFF1FE458FF4FA591B491EC91DE
:1005B000ED2381E090E009F480E0DF91CF91089590
:1005C00080E090E0FACF1F93CF93DF93282F30E0A5
:1005D000F901E255FF4F8491F901E656FF4FD4919E
:1005E000F901EA57FF4FC491CC23A9F0162F8111CE
:1005F0000E949102EC2FF0E0EE0FFF1FEE58FF4F2C
:10060000A591B4918FB7F894EC91111108C0D095D1
:10061000DE23DC938FBFDF91CF911F910895DE2BF6
:10062000F8CFCF93DF9390E0FC01E656FF4F249183
:100630008A579F4FFC0184918823D1F090E0880F66
:10064000991FFC01E859FF4FA591B491FC01EE58A8
:10065000FF4FC591D49161110EC09FB7F8948C9152
:10066000E22FE0958E238C932881E223E8839FBFBD
:10067000DF91CF9108958FB7F894EC91E22BEC9332
:100680008FBFF6CF8E3008F08E50877080648093D5
:100690007C0080917A00806480937A0080917A0057
:1006A00086FDFCCF809178009091790008953FB746
:1006B000F8948091650190916601A0916701B091D5
:1006C000680126B5A89B05C02F3F19F00196A11D12
:1006D000B11D3FBFBA2FA92F982F8827BC01CD018C
:1006E000620F711D811D911D42E0660F771F881FEB
:1006F000991F4A95D1F708958F929F92AF92BF921A
:10070000CF92DF92EF92FF926B017C010E94570320
:100710004B015C01C114D104E104F104B9F00E9461
:100720005703681979098A099B09683E7340810556
:10073000910580F321E0C21AD108E108F10888EEA2
:10074000880E83E0981EA11CB11CE4CFFF90EF90AF
:10075000DF90CF90BF90AF909F908F900895CF92F1
:10076000DF92EF92FF920F931F93CF93DF9300D00E
:10077000CDB7DEB769834A83880F991F00915E0267
:1007800010915F02000F111FE8E0F2E09F01285076
:1007900032402017310714F41192F8CF2981FC015F
:1007A000E85FFD4F21838A81808360E080915C0255
:1007B0000E94E3021016110604F501501109F80118
:1007C000E85FFD4FE080D0905A02C090580288E068
:1007D000F82E6E2D661F6627661F8C2D0E94E30281
:1007E000EE0C61E08D2D0E94E30260E08D2D0E94F1
:1007F000E302FA94F110EDCFDDCF61E080915C026D
:100800000F900F90DF91CF911F910F91FF90EF907C
:10081000DF90CF900C94E302EF92FF921F93CF935F
:10082000DF9320915E0230915F0282179307B4F448
:10083000EC0123E0880F991F2A95E1F79C01285EBF
:100840003D4F790111E0F70111927F0140E0612FE6
:10085000CE010E94AF031F5F1930A9F7DF91CF913E
:100860001F91FF90EF900895CF93DF93D0E0C0E009
:1008700080915E0290915F02C817D9072CF4CE01D7
:100880000E940C042196F4CFDF91CF91089597FD3B
:100890002CC0E0915E02F0915F028E179F072CF54D
:1008A0006830710510F548305105F8F4E0E8F0E0E3
:1008B000DF0102C0B595A7954A95E2F7AD01FC01AD
:1008C00033E0EE0FFF1F3A95E1F7E60FF71FE85F01
:1008D000FD4F3089222331F0432B408B6F5F4089DD
:1008E0000C94AF0340954323F8CF08954F925F9245
:1008F0006F927F928F929F92AF92BF92CF92DF9230
:10090000EF92FF920F931F93CF93DF93CDB7DEB794
:1009100028970FB6F894DEBF0FBECDBF8B0198E0CD
:10092000E2E0F1E0DE01119601900D929A95E1F777
:100930009FEB980F9A3138F528E08202C00111240C
:10094000DE01119630E020E086529040FC01E20F7B
:10095000F31FE491ED932F5F3F4F28303105B1F73E
:100960008091600281118BC0F12CE12CB8016E0DD9
:100970007F1D90E080E0683071050CF442C0019664
:1009800068507109F8CF9FE9980F9A31A8F428E0D0
:100990008202C0011124DE01119630E020E0865F62
:1009A0009140FC01E20FF31FE491ED932F5F3F4F65
:1009B00028303105B1F7D4CF90ED980F9A30A8F4D4
:1009C00028E08202C0011124DE01119630E020E00F
:1009D0008E5B9040FC01E20FF31FE491ED932F5FDB
:1009E0003F4F28303105B1F7BBCF803209F0B8CF87
:1009F00019821A821B821C821D821E821F82188607
:100A0000AFCF20915E0230915F028217930704F509
:100A100068307105A8F4E1E0F0E0EC0FFD1FEE0D89
:100A2000FF1D4081FC0123E0EE0FFF1F2A95E1F737
:100A3000E85FFD4FE60FF71F408B6F5F0E94AF032B
:100A40008FEFE81AF80A28E0E216F10409F08ECFD9
:100A500028960FB6F894DEBF0FBECDBFDF91CF91C1
:100A60001F910F91FF90EF90DF90CF90BF90AF90CC
:100A70009F908F907F906F905F904F9008954090DF
:100A80005E0250905F0281E0481A510883E0440CF6
:100A9000551C8A95E1F7401A510A08E010E097E0EA
:100AA000692E712C80915E0290915F027C0121E0A1
:100AB000E21AF1085201A01AB10AB7FE07C021E0FC
:100AC000E21AF10828E0A20EB11CF7CF2FEFE216D0
:100AD000F2060CF4BDCF015011092FEFE216F20619
:100AE00039F1E816F90624F588E0A816B10404F5F2
:100AF000E1E0F0E0EC0FFD1FE00FF11F8080D12C52
:100B0000C12C912CC3018C199D09940102C035950B
:100B100027958A95E2F72170A501B601C7010E94C9
:100B200047042FEFC21AD20A88E0C816D10451F741
:100B30000115110509F0B6CF8BCFFC010190002003
:100B4000E9F73197AF01481B590BBC018BE691E0E7
:100B50000C948401EF92FF920F931F93CF93DF9336
:100B6000EC018B017C01FE0101900020E9F7319737
:100B7000EC1BFD0BC7018C1B9D0B8E179F0748F4C8
:100B8000B801F70181917F010E947604085F1F4F31
:100B9000EACFDF91CF911F910F91FF90EF900895D1
:100BA0001F920F920FB60F9211242F933F934F93E2
:100BB0005F936F937F938F939F93AF93BF93EF93C5
:100BC000FF938BE691E00E940202FF91EF91BF91AB
:100BD000AF919F918F917F916F915F914F913F91D5
:100BE0002F910F900FBE0F901F9018951F920F928C
:100BF0000FB60F9211242F938F939F93EF93FF9330
:100C0000E0917B01F0917C018081E0918101F09184
:100C1000820182FD1BC09081809184018F5F8F7360
:100C200020918501821741F0E0918401F0E0E559BF
:100C3000FE4F958F80938401FF91EF919F918F914B
:100C40002F910F900FBE0F901F9018958081F4CFB9
:100C50001F920F920FB60F9211242F933F938F93F1
:100C60009F93AF93BF938091610190916201A09196
:100C70006301B09164013091600123E0230F2D37AF
:100C800058F50196A11DB11D20936001809361016B
:100C900090936201A0936301B09364018091650118
:100CA00090916601A0916701B09168010196A11D24
:100CB000B11D8093650190936601A0936701B09385
:100CC0006801BF91AF919F918F913F912F910F90AC
:100CD0000FBE0F901F90189526E8230F0296A11DB6
:100CE000B11DD2CFEBE6F1E01382128288EE93E0E1
:100CF000A0E0B0E084839583A683B78386E391E088
:100D00009183808385EC90E09587848784EC90E0E4
:100D10009787868780EC90E0918B808B81EC90E0C8
:100D2000938B828B82EC90E0958B848B86EC90E0A9
:100D3000978B868B118E128E138E148E0895789455
:100D400084B5826084BD84B5816084BD85B58260D0
:100D500085BD85B5816085BD80916E008160809381
:100D60006E001092810080918100826080938100EA
:100D700080918100816080938100809180008160FA
:100D8000809380008091B10084608093B100809155
:100D9000B00081608093B00080917A00846080937D
:100DA0007A0080917A00826080937A0080917A0044
:100DB000816080937A0080917A00806880937A00C5
:100DC0001092C10060E089E00E94110360E08AE0B7
:100DD0000E941103E0917B01F0917C0182E080830D
:100DE000E0917701F09178011082E0917901F09122
:100DF0007A018FEC808310928301E0917F01F09162
:100E0000800186E08083E0917D01F0917E01808108
:100E100080618083E0917D01F0917E018081886016
:100E20008083E0917D01F0917E01808180688083E4
:100E3000E0917D01F0917E0180818F7D808361E072
:100E400082E00E94110361E083E00E94110361E0EF
:100E500084E00E94110361E085E00E94110361E0DB
:100E600086E00E94110361E087E00E94110361E0C7
:100E700088E00E941103CBE0D0E0D0935902C093E8
:100E800058028DE090E090935B0280935A028CE0D0
:100E900090E090935D0280935C021092600282E089
:100EA00090E090935F0280935E0261E08BE00E948D
:100EB000110361E080915A020E94110361E0809168
:100EC0005C020E94110361E080915C020E94E302D7
:100ED000D0935902C0935802E8E1F2E0119222E067
:100EE000E835F207D9F7D0E0C0E080915E0290913A
:100EF0005F02C817D9073CF540E06FE0CE010E94C1
:100F0000AF0380915E0290915F02C817D9072CF45D
:100F100047E06BE0CE010E94AF0340E069E0CE0104
:100F20000E94AF03CE010E940C0480915E0290915A
:100F30005F02C817D9072CF440E06CE0CE010E9494
:100F4000AF032196D2CFD0E0C0E080915E029091B5
:100F50005F02C817D907B4F441E06CE0CE010E94EB
:100F6000AF0380915E0290915F02C817D9072CF4FD
:100F700048E06AE0CE010E94AF03CE010E940C045B
:100F80002196E3CF81E080936002C8EE6C2EC3E02F
:100F90007C2EA7E54A2E55245A94B0E02B2EB0E0C3
:100FA0003B2E89E00E94BA02019709F0DCC28AE078
:100FB0000E94BA02019709F0D6C20E943404D0E020
:100FC000C0E00E9434048EE00E94420390936A01C4
:100FD000809369019301281B390B30930101209301
:100FE00000018C3C910594F48BE491E00E949D05F6
:100FF0000AE011E0F2E0FF2EF80161918F018F2DE0
:101000000E94E302F394FAE0FF12F6CF80916901A7
:1010100090916A018C5C91098D3C910590F484E477
:1010200091E00E949D0502E111E0E2E0FE2EF80150
:1010300061918F018F2D0E94E302F394FAE0FF1279
:10104000F6CF8091690190916A01895991408C3C59
:10105000910590F486E491E00E949D050AE111E07B
:1010600072E0F72EF80161918F018F2D0E94E3024B
:10107000F394FAE0FF12F6CF8091690190916A0132
:10108000855692408D3C910590F483E591E00E9455
:101090009D0502E211E062E0F62EF80161918F01F8
:1010A0008F2D0E94E302F394FAE0FF12F6CF8091B5
:1010B000690190916A018233934094F088E491E051
:1010C0000E949D050AE211E052E0F52EF8016191BF
:1010D0008F018F2D0E94E302F394FAE0FF12F6CF06
:1010E00021E0AE0167E070E090E080E00E944704FC
:1010F0007E0122E0E20EF11C21E0A70167E070E032
:1011000090E080E00E9447048E010F5F1F4F21E0B6
:10111000A80166E070E090E080E00E94470421E0D2
:10112000AE0165E070E090E080E00E94470421E0BD
:10113000A70165E070E090E080E00E94470461E173
:1011400070E0601B710B8AE491E00E94AA056E01B9
:1011500086E0C81AD10821E0A60167E070E081E0CE
:1011600090E00E9447047E01E8E0EE1AF10821E0D9
:10117000A70167E070E081E090E00E944704AE01C3
:101180004750510921E066E070E081E090E00E9464
:10119000470421E0A60165E070E081E090E00E9454
:1011A000470421E0A70165E070E081E090E00E9443
:1011B00047044E01FAE18F1A910821E0A40164E08E
:1011C00070E090E080E00E9447045E012BE1A21AEB
:1011D000B10821E0A50164E070E090E080E00E94A9
:1011E00047046E018CE1C81AD10821E0A60164E031
:1011F00070E090E080E00E9447047E01EDE1EE1A8D
:10120000F10821E0A70164E070E090E080E00E9436
:10121000470421E0A40163E070E090E080E00E94D8
:10122000470421E0A50163E070E090E080E00E94C7
:10123000470421E0A60163E070E090E080E00E94B6
:10124000470421E0A70163E070E090E080E00E94A5
:1012500047044E01F2E28F1A910821E0A40164E0F4
:1012600070E081E090E00E9447045E0123E2A21A50
:10127000B10821E0A50164E070E081E090E00E9407
:1012800047046E0184E2C81AD10821E0A60164E097
:1012900070E081E090E00E9447047E01E5E2EE1AF2
:1012A000F10821E0A70164E070E081E090E00E9495
:1012B000470421E0A40163E070E081E090E00E9437
:1012C000470421E0A50163E070E081E090E00E9426
:1012D000470421E0A60163E070E081E090E00E9415
:1012E000470421E0A70163E070E081E090E00E9404
:1012F00047046FE270E0601B710B8DE491E00E9487
:10130000AA054E01F0E68F1A910821E0A40164E0DD
:1013100070E090E080E00E9447045E0121E6A21A9E
:10132000B10821E0A50164E070E090E080E00E9457
:1013300047046E0182E6C81AD10821E0A60164E0E4
:1013400070E090E080E00E9447047E01E3E6EE1A40
:10135000F10821E0A70164E070E090E080E00E94E5
:10136000470421E0A40163E070E090E080E00E9487
:10137000470421E0A50163E070E090E080E00E9476
:10138000470421E0A60163E070E090E080E00E9465
:10139000470421E0A70163E070E090E080E00E9454
:1013A00047044E01F8E68F1A910821E0A40164E099
:1013B00070E081E090E00E9447045E0129E6A21AF5
:1013C000B10821E0A50164E070E081E090E00E94B6
:1013D00047046E018AE6C81AD10821E0A60164E03C
:1013E00070E081E090E00E9447047E01EBE6EE1A97
:1013F000F10821E0A70164E070E081E090E00E9444
:10140000470421E0A40163E070E081E090E00E94E5
:10141000470421E0A50163E070E081E090E00E94D4
:10142000470421E0A60163E070E081E090E00E94C3
:10143000470421E0A70163E070E081E090E00E94B2
:10144000470465E770E0601B710B85E591E00E9441
:10145000AA056E01FDEACF1AD10821E0A60167E0D6
:1014600070E090E080E00E9447047E012FEAE21ADB
:10147000F10821E0A70167E070E090E080E00E94C1
:101480004704AE014E5A510921E066E070E090E059
:1014900080E00E94470421E0A60165E070E090E052
:1014A00080E00E94470421E0A70165E070E090E041
:1014B00080E00E9447046E0185EBC81AD10821E044
:1014C000A60167E070E081E090E00E9447047E01A1
:1014D000E7EBEE1AF10821E0A70167E070E081E098
:1014E00090E00E944704AE01465B510921E066E0AE
:1014F00070E081E090E00E94470421E0A60165E0F1
:1015000070E081E090E00E94470421E0A70165E0DF
:1015100070E081E090E00E94470489E00E94BA02F6
:10152000892BD1F089E00E94BA02019729F48AE060
:101530000E94BA02892BA9F060910001709101010B
:10154000072E000C880B990B0E947C03E801083CD5
:10155000110509F036CD07C08AE00E94BA02019752
:1015600009F70E94340489E00E94BA02019709F049
:10157000CBC28AE00E94BA02892B09F0C5C2C7E03B
:10158000D0E00E9434048EE00E94420390936A01EE
:10159000809369019301281B390B3093010120933B
:1015A00000018C3C910594F48BE491E00E949D0530
:1015B0000AE011E042E0F42EF80161918F018F2DD5
:1015C0000E94E302F394FAE0FF12F6CF80916901E2
:1015D00090916A018C5C91098D3C910590F484E4B2
:1015E00091E00E949D0502E111E032E0F32EF80146
:1015F00061918F018F2D0E94E302F394FAE0FF12B4
:10160000F6CF8091690190916A01895991408C3C93
:10161000910590F486E491E00E949D050AE111E0B5
:1016200022E0F22EF80161918F018F2D0E94E302DA
:10163000F394FAE0FF12F6CF8091690190916A016C
:10164000855692408D3C910590F483E591E00E948F
:101650009D0502E211E092E0F92EF80161918F01FF
:101660008F2D0E94E302F394FAE0FF12F6CF8091EF
:10167000690190916A018233934094F088E491E08B
:101680000E949D050AE211E082E0F82EF8016191C6
:101690008F018F2D0E94E302F394FAE0FF12F6CF40
:1016A00021E0AE0167E070E081E090E00E94470435
:1016B0007E0122E0E21AF10821E0A70167E070E074
:1016C00081E090E00E9447048E010150110921E061
:1016D000A80166E070E081E090E00E94470421E00C
:1016E000AE0165E070E081E090E00E94470421E0F7
:1016F000A70165E070E081E090E00E9447046E0180
:1017000086E0C80ED11C21E0A60167E070E090E001
:1017100080E00E9447047E01E8E0EE0EF11C21E02B
:10172000A70167E070E090E080E00E944704AE010E
:10173000495F5F4F21E066E070E090E080E00E944A
:10174000470421E0A60165E070E090E080E00E949F
:10175000470421E0A70165E070E090E080E00E948E
:1017600047046EEB7FEF6C1B7D0B85E591E00E94DB
:10177000AA054E01FDE48F0E911C21E0A40164E056
:1017800070E081E090E00E9447045E012EE4A20E2A
:10179000B11C21E0A50164E070E081E090E00E94CE
:1017A00047046E018FE4C80ED11C21E0A60164E05D
:1017B00070E081E090E00E9447047E01E0E5EE0EDB
:1017C000F11C21E0A70164E070E081E090E00E945C
:1017D000470421E0A40163E070E081E090E00E9412
:1017E000470421E0A50163E070E081E090E00E9401
:1017F000470421E0A60163E070E081E090E00E94F0
:10180000470421E0A70163E070E081E090E00E94DE
:1018100047044E01F5E58F0E911C21E0A40164E020
:1018200070E090E080E00E9447045E0126E5A20E91
:10183000B11C21E0A50164E070E090E080E00E942E
:1018400047046E0187E5C80ED11C21E0A60164E0C3
:1018500070E090E080E00E9447047E01E8E5EE0E33
:10186000F11C21E0A70164E070E090E080E00E94BC
:10187000470421E0A40163E070E090E080E00E9472
:10188000470421E0A50163E070E090E080E00E9461
:10189000470421E0A60163E070E090E080E00E9450
:1018A000470421E0A70163E070E090E080E00E943F
:1018B000470466E77FEF6C1B7D0B8DE491E00E948F
:1018C000AA054E01F3E98F0E911C21E0A40164E00A
:1018D00070E081E090E00E9447045E0124E9A20EDE
:1018E000B11C21E0A50164E070E081E090E00E947D
:1018F00047046E0185E9C80ED11C21E0A60164E011
:1019000070E081E090E00E9447047E01E6E9EE0E7F
:10191000F11C21E0A70164E070E081E090E00E940A
:10192000470421E0A40163E070E081E090E00E94C0
:10193000470421E0A50163E070E081E090E00E94AF
:10194000470421E0A60163E070E081E090E00E949E
:10195000470421E0A70163E070E081E090E00E948D
:1019600047044E01FBE98F0E911C21E0A40164E0C5
:1019700070E090E080E00E9447045E012CE9A20E36
:10198000B11C21E0A50164E070E090E080E00E94DD
:1019900047046E018DE9C80ED11C21E0A60164E068
:1019A00070E090E080E00E9447047E01EEE9EE0ED8
:1019B000F11C21E0A70164E070E090E080E00E946B
:1019C000470421E0A40163E070E090E080E00E9421
:1019D000470421E0A50163E070E090E080E00E9410
:1019E000470421E0A60163E070E090E080E00E94FF
:1019F000470421E0A70163E070E090E080E00E94EE
:101A00004704B2016C1B7D0B8AE491E00E94AA0599
:101A10006E01F2EBCF0ED11C21E0A60167E070E071
:101A200081E090E00E9447047E0124EBE20EF11C6D
:101A300021E0A70167E070E081E090E00E944704A8
:101A4000AE014D545F4F21E066E070E081E090E030
:101A50000E94470421E0A60165E070E081E090E08B
:101A60000E94470421E0A70165E070E081E090E07A
:101A70000E9447046E0183ECC80ED11C21E0A60130
:101A800067E070E090E080E00E9447047E01E5ECB2
:101A9000EE0EF11C21E0A70167E070E090E080E02D
:101AA0000E944704AE014C535F4F21E066E070E0B6
:101AB00090E080E00E94470421E0A60165E070E02C
:101AC00090E080E00E94470421E0A70165E070E01B
:101AD00090E080E00E94470489E00E94BA020197EA
:101AE00061F06091000170910101072E000C880BDC
:101AF000990B0E947C03E80144CD8AE00E94BA025F
:101B0000019779F70E94340489E00E94BA02892B78
:101B100009F03AC28AE00E94BA02019709F034C281
:101B20000E9434048EE00E94420390936A018093E5
:101B300069019301281B390B3093010120930001A7
:101B40008C3C910574F48BE491E00E949D05CAE001
:101B5000D1E012E06991812F0E94E3021F5F1A30E9
:101B6000C9F78091690190916A018C5C91098D3C63
:101B7000910570F484E491E00E949D05C2E1D1E0FA
:101B800012E06991812F0E94E3021F5F1A30C9F7AA
:101B90008091690190916A01895991408C3C91052D
:101BA00070F486E491E00E949D05CAE1D1E012E064
:101BB0006991812F0E94E3021F5F1A30C9F780915B
:101BC000690190916A01855692408D3C910570F4AF
:101BD00083E591E00E949D05C2E2D1E012E06991A7
:101BE000812F0E94E3021F5F1A30C9F780916901BB
:101BF00090916A018233934074F088E491E00E94EE
:101C00009D05CAE2D1E012E06991812F0E94E302B2
:101C10001F5F1A30C9F721E045E050E067E070E04F
:101C200081E090E00E94470421E047E050E067E057
:101C300070E081E090E00E94470421E046E050E03F
:101C400066E070E081E090E00E94470421E045E01A
:101C500050E065E070E081E090E00E94470421E000
:101C600047E050E065E070E081E090E00E944704CA
:101C7000C0900001D09001010D2C000CEE08FF086F
:101C8000C701B6010E947C030E94340470E060E04A
:101C900080E50E947604C701B6010E947C030E9481
:101CA000340470E060E081E30E947604C701B6016D
:101CB0000E947C030E94340421E042E050E064E092
:101CC00070E081E090E00E94470421E043E050E0B2
:101CD00064E070E081E090E00E94470421E044E08D
:101CE00050E064E070E081E090E00E94470421E071
:101CF00045E050E064E070E081E090E00E9447043D
:101D000021E042E050E063E070E081E090E00E947A
:101D1000470421E043E050E063E070E081E090E0C0
:101D20000E94470421E044E050E063E070E081E07D
:101D300090E00E94470421E045E050E063E070E05D
:101D400081E090E00E944704C701B6010E947C0335
:101D50000E94340470E060E087E40E947604C701CA
:101D6000B6010E947C030E94340470E060E082E5CA
:101D70000E947604C701B6010E947C030E943404CD
:101D800070E060E085E50E947604C701B6010E941C
:101D90007C030E94340470E060E080E50E947604D9
:101DA000C701B6010E947C030E94340470E060E029
:101DB0008FE40E947604C701B6010E947C030E9452
:101DC000340470E060E084E30E947604C701B60149
:101DD0000E947C030E94340421E042E050E064E071
:101DE00070E081E090E00E94470421E043E050E091
:101DF00064E070E081E090E00E94470421E044E06C
:101E000050E064E070E081E090E00E94470421E04F
:101E100045E050E064E070E081E090E00E9447041B
:101E200021E042E050E063E070E081E090E00E9459
:101E3000470421E043E050E063E070E081E090E09F
:101E40000E94470421E044E050E063E070E081E05C
:101E500090E00E94470421E045E050E063E070E03C
:101E600081E090E00E944704C701B6010E947C0314
:101E70000E94340470E060E083E50E947604C701AC
:101E8000B6010E947C030E94340470E060E085E4A7
:101E90000E947604C701B6010E947C030E943404AC
:101EA00070E060E083E40E947604C701B6010E94FE
:101EB0007C030E94340470E060E083E40E947604B6
:101EC000C701B6010E947C030E94340470E060E008
:101ED00089E40E947604C701B6010E947C030E9437
:101EE000340470E060E08FE40E947604C701B6011C
:101EF0000E947C030E94340470E060E08EE40E9443
:101F00007604C701B6010E947C030E94340470E08D
:101F100060E082E40E947604C701B6010E947C035F
:101F20000E94340421E045E050E067E070E081E089
:101F300090E00E94470421E047E050E067E070E055
:101F400081E090E00E94470421E046E050E066E036
:101F500070E081E090E00E94470421E045E050E01D
:101F600065E070E081E090E00E94470421E047E0F6
:101F700050E065E070E081E090E00E944704C70116
:101F8000B6010E947C03C0CD2114310409F409C8B4
:101F90000E94EE01882311F40C94C9070E940000EE
:101FA0000C94C907EE0FFF1F0590F491E02D0994E2
:041FB000F894FFCFD3
:101FB400F40100082A1C771C2A0800010100000013
:101FC4000000010100010100010001010101000004
:101FD40001000001010000010100010001010001F4
:101FE40001000000000024028401B1017102E20139
:101FF400C001D4013200330035005031004752553E
:10200400504F20340053454343494F4E2042000073
:00000001FF
