:100000000C945B010C9483010C9483010C94830188
:100010000C9483010C9483010C9483010C94830150
:100020000C9483010C9483010C9483010C94830140
:100030000C9483010C9483010C9483010C94830130
:100040000C943B070C9483010C9409070C94E30671
:100050000C9483010C9483010C9483010C94830110
:100060000C9483010C9483010000000024002700FD
:100070002A0000000000250028002B0000000000DE
:1000800023002600290004040404040404040202DA
:100090000202020203030303030301020408102007
:1000A0004080010204081020010204081020000012
:1000B0000008000201000003040700000000000027
:1000C0000000007CFE928AFE7C00008088FEFE809C
:1000D000800000C4E6A2929E8C000044C69292FE6C
:1000E0006C0000302824FEFE2000004ECE8A8AFAE2
:1000F0007200007CFE9292F66400000606E2FA1E90
:100100000600006CFE9292FE6C00004CDE9292FEA5
:100110007C000040E8A8A8F8F00000FEFE9090F0F7
:1001200060000070F88888D850000060F09090FE61
:10013000FE000070F8A8A8B830000020FCFE2226BF
:1001400004000018BCA4A4FC7C0000FEFE1010F00B
:10015000E000000080F4F48000000060E080FA7AA3
:10016000000000FEFE2070D88800000000FEFE00A7
:10017000000000F8F830E030F8F800F8F81818F847
:10018000F0000070F88888F8700000FCFC24243C23
:10019000180000183C24FCFC80C000F8F80808385F
:1001A00030000090A8A8A8A84800001010FCFC107F
:1001B00010000078F88080F8F800003070C0C0703F
:1001C00030000078F880F080F8780088D87070D817
:1001D00088000018B8A0A0F878000000C8E8B89817
:1001E000000000FCFE1212FEFC0000FEFE9292FED9
:1001F0006C00007CFE8282C6440000FEFE8282FE0D
:100200007C0000FEFE929292820000FEFE1212120C
:100210000200007CFE82A2E6640000FEFE1010FEDA
:10022000FE00000082FEFE8200000060E082FE7E92
:10023000020000FEFE386CC6820000FEFE80808058
:10024000800000FEFE0C180CFEFE00FEFE0C1830B6
:10025000FEFE007CFE8282FE7C0000FEFE22223E2C
:100260001C00003C7E4262FEBC0000FEFE3272DEDC
:100270008C00004CDE9292F66400000602FEFE0244
:100280000600007EFE8080FEFE00003E7EC0C07E36
:100290003E0000FEFE603060FEFE00C6EE38103804
:1002A000EEC6000E1EF0F01E0E0000C2E2B29A8EE4
:1002B00086008507131111241FBECFEFD8E0DEBFE3
:1002C000CDBF22E0A8E6B1E001C01D92A337B2077E
:1002D000E1F711E0A0E0B1E0EEECF6E202C005903B
:1002E0000D92A836B107D9F711E0CAE5D1E004C0F4
:1002F0002197FE010E945311C935D107C9F70E9409
:10030000FB070C945A130C9400000895AF92BF920F
:10031000CF92DF92EF92FF920F931F93CF93DF93D1
:100320006C017B018B01040F151FEB015E01AE1800
:10033000BF08C017D10759F06991D601ED91FC9122
:100340000190F081E02DC6010995892B79F7C5014F
:10035000DF91CF911F910F91FF90EF90DF90CF90A1
:10036000BF90AF900895FC01538D448D252F30E050
:10037000842F90E0821B930B541710F0CF960895B2
:1003800001970895FC01918D828D981761F0A28DDF
:10039000AE0FBF2FB11D5D968C91928D9F5F9F73A5
:1003A000928F90E008958FEF9FEF08952FB7F89404
:1003B00080916F0190917001A0917101B0917201D3
:1003C0002FBF80937B0190937C01A0937D01B0931C
:1003D0007E0183E791E00E94C20197FF26C02FB7FC
:1003E000F89480916F0190917001A0917101B0918A
:1003F00072012FBF40917B0150917C0160917D0182
:1004000070917E01841B950BA60BB70B4091770171
:10041000509178016091790170917A018417950764
:10042000A607B707B0F28FEF9FEF0895FC01918DFB
:10043000828D981731F0828DE80FF11D858D90E047
:1004400008958FEF9FEF0895FC01918D228D892FE4
:1004500090E0805C9F4F821B91098F7399270895CC
:1004600083E791E00E94240221E0892B09F420E037
:10047000822F089580E090E0892B29F00E943002BD
:1004800081110C9400000895FC01A48DA80FB92FD0
:10049000B11DA35ABF4F2C91848D90E001968F73AC
:1004A0009927848FA689B7892C93A089B1898C91CB
:1004B000837080648C93938D848D981306C002881A
:1004C000F389E02D80818F7D80830895EF92FF92E4
:1004D0000F931F93CF93DF93EC0181E0888F9B8D67
:1004E0008C8D98131AC0E889F989808185FF15C021
:1004F0009FB7F894EE89FF896083E889F989808144
:100500008370806480839FBF81E090E0DF91CF9112
:100510001F910F91FF90EF900895F62E0B8D10E034
:100520000F5F1F4F0F731127E02E8C8D8E110CC0A3
:100530000FB607FCFACFE889F989808185FFF5CFEE
:10054000CE010E944402F1CFEB8DEC0FFD2FF11D87
:10055000E35AFF4FF0829FB7F8940B8FEA89FB892B
:1005600080818062CFCFCF93DF93EC01888D882389
:10057000B9F0AA89BB89E889F9898C9185FD03C006
:10058000808186FD0DC00FB607FCF7CF8C9185FFEB
:10059000F2CF808185FFEDCFCE010E944402E9CFEA
:1005A000DF91CF910895833081F028F4813099F064
:1005B0008230A9F008958730A9F08830C9F08430DE
:1005C000B1F4809180008F7D03C0809180008F778F
:1005D00080938000089584B58F7784BD089584B595
:1005E0008F7DFBCF8091B0008F778093B00008950E
:1005F0008091B0008F7DF9CFCF93DF93282F30E02B
:10060000F901E255FF4F8491F901E656FF4FD4916D
:10061000F901EA57FF4FC491CC23A1F081110E9448
:10062000D302EC2FF0E0EE0FFF1FE458FF4FA5912F
:10063000B491EC91ED2381E090E009F480E0DF914A
:10064000CF91089580E090E0FACF1F93CF93DF938E
:10065000282F30E0F901E255FF4F8491F901E65669
:10066000FF4FD491F901EA57FF4FC491CC23A9F071
:10067000162F81110E94D302EC2FF0E0EE0FFF1F26
:10068000EE58FF4FA591B4918FB7F894EC911111EA
:1006900008C0D095DE23DC938FBFDF91CF911F91EF
:1006A0000895DE2BF8CFCF93DF9390E0FC01E65660
:1006B000FF4F24918A579F4FFC0184918823D1F0EA
:1006C00090E0880F991FFC01E859FF4FA591B49164
:1006D000FC01EE58FF4FC591D49161110EC09FB738
:1006E000F8948C91E22FE0958E238C932881E2235D
:1006F000E8839FBFDF91CF9108958FB7F894EC9175
:10070000E22BEC938FBFF6CF3FB7F89480916B014B
:1007100090916C01A0916D01B0916E0126B5A89BDE
:1007200005C02F3F19F00196A11DB11D3FBFBA2F83
:10073000A92F982F8827BC01CD01620F711D811D43
:10074000911D42E0660F771F881F991F4A95D1F7C8
:1007500008958F929F92AF92BF92CF92DF92EF92C5
:10076000FF926B017C010E9484034B015C01C11468
:10077000D104E104F104B9F00E94840368197909F5
:100780008A099B09683E73408105910580F321E049
:10079000C21AD108E108F10888EE880E83E0981E9D
:1007A000A11CB11CE4CFFF90EF90DF90CF90BF90E1
:1007B000AF909F908F900895CF92DF92EF92FF922B
:1007C0000F931F93CF93DF9300D0CDB7DEB769832C
:1007D0004A83880F991F00916C0210916D02000FDF
:1007E000111FE6E1F2E09F01265132402017310748
:1007F00014F41192F8CF2981FC01EA5EFD4F2183A8
:100800008A81808360E080916A020E94250310162D
:10081000110604F501501109F801EA5EFD4FE08070
:10082000D0906802C090660288E0F82E6E2D661F98
:100830006627661F8C2D0E942503EE0C61E08D2D2E
:100840000E94250360E08D2D0E942503FA94F1108B
:10085000EDCFDDCF61E080916A020F900F90DF91C4
:10086000CF911F910F91FF90EF90DF90CF900C945C
:100870002503EF92FF921F93CF93DF9320916C0299
:1008800030916D0282179307B4F4EC0123E0880FD6
:10089000991F2A95E1F79C012A5D3D4F790111E0EE
:1008A000F70111927F0140E0612FCE010E94DC032D
:1008B0001F5F1930A9F7DF91CF911F91FF90EF9043
:1008C0000895CF93DF93D0E0C0E080916C029091C7
:1008D0006D02C817D9072CF4CE010E943904219665
:1008E000F4CFDF91CF91089597FD2CC0E0916C0279
:1008F000F0916D028E179F072CF56830710510F589
:1009000048305105F8F4E0E8F0E0DF0102C0B595A9
:10091000A7954A95E2F7AD01FC0133E0EE0FFF1F0A
:100920003A95E1F7E60FF71FEA5EFD4F3089222383
:1009300031F0432B408B6F5F40890C94DC03409572
:100940004323F8CF08954F925F926F927F928F92D8
:100950009F92AF92BF92CF92DF92EF92FF920F934E
:100960001F93CF93DF93CDB7DEB728970FB6F894D8
:10097000DEBF0FBECDBF8B0198E0E8E0F1E0DE0105
:10098000119601900D929A95E1F79FEB980F9A318D
:1009900038F528E08202C0011124DE01119630E012
:1009A00020E086529040FC01E20FF31FE491ED93AA
:1009B0002F5F3F4F28303105B1F780916E028111D2
:1009C0008BC0F12CE12CB8016E0D7F1D90E080E012
:1009D000683071050CF442C0019668507109F8CF77
:1009E0009FE9980F9A31A8F428E08202C0011124EF
:1009F000DE01119630E020E0865F9140FC01E20FBD
:100A0000F31FE491ED932F5F3F4F28303105B1F78D
:100A1000D4CF90ED980F9A30A8F428E08202C0015C
:100A20001124DE01119630E020E08E5B9040FC0145
:100A3000E20FF31FE491ED932F5F3F4F2830310514
:100A4000B1F7BBCF803209F0B8CF19821A821B826E
:100A50001C821D821E821F821886AFCF20916C02DD
:100A600030916D028217930704F568307105A8F480
:100A7000E1E0F0E0EC0FFD1FEE0DFF1D4081FC01F9
:100A800023E0EE0FFF1F2A95E1F7EA5EFD4FE60F28
:100A9000F71F408B6F5F0E94DC038FEFE81AF80AA4
:100AA00028E0E216F10409F08ECF28960FB6F894EC
:100AB000DEBF0FBECDBFDF91CF911F910F91FF9091
:100AC000EF90DF90CF90BF90AF909F908F907F90EE
:100AD0006F905F904F90089540906C0250906D021F
:100AE00081E0481A510883E0440C551C8A95E1F7CF
:100AF000401A510A08E010E097E0692E712C8091AD
:100B00006C0290916D027C0121E0E21AF108520121
:100B1000A01AB10AB7FE07C021E0E21AF10828E0E6
:100B2000A20EB11CF7CF2FEFE216F2060CF4BDCFE8
:100B3000015011092FEFE216F20639F1E816F90615
:100B400024F588E0A816B10404F5E1E0F0E0EC0F2C
:100B5000FD1FE00FF11F8080D12CC12C912CC3010F
:100B60008C199D09940102C0359527958A95E2F765
:100B70002170A501B601C7010E9474042FEFC21AAB
:100B8000D20A88E0C816D10451F70115110509F001
:100B9000B6CF8BCFFC0101900020E9F73197AF0170
:100BA000481B590BBC0183E791E00C9486010F931D
:100BB0001F93CF9380E480937C0080917A008064BF
:100BC00080937A0080917A0086FDFCCF9091780026
:100BD00080917900892798278927909369018093CC
:100BE000680128EE33E0281B390B30930101209374
:100BF00000018C3C910584F481E591E00E94CA05D6
:100C000000E111E0C2E0F80161918F018C2F0E9498
:100C10002503CF5FCA30B9F78091680190916901CF
:100C20008C5C91098D3C910580F48AE491E00E94EE
:100C3000CA0508E111E0C2E0F80161918F018C2F33
:100C40000E942503CF5FCA30B9F780916801909167
:100C50006901895991408C3C910580F48CE491E0C4
:100C60000E94CA0500E211E0C2E0F80161918F0123
:100C70008C2F0E942503CF5FCA30B9F7809168019D
:100C800090916901855692408D3C910580F489E5EB
:100C900091E00E94CA0508E211E0C2E0F80161910A
:100CA0008F018C2F0E942503CF5FCA30B9F7809146
:100CB0006801909169018233934084F08EE491E061
:100CC0000E94CA0500E311E0C2E0F80161918F01C2
:100CD0008C2F0E942503CF5FCA30B9F7CF911F91A7
:100CE0000F910895EF92FF920F931F93CF93DF938D
:100CF000EC018B017C01FE0101900020E9F73197A6
:100D0000EC1BFD0BC7018C1B9D0B8E179F0748F436
:100D1000B801F70181917F010E94A304085F1F4F72
:100D2000EACFDF91CF911F910F91FF90EF9008953F
:100D30000F931F93CF93DF9300911402109115022C
:100D40000115110539F4FC011082DF91CF911F913B
:100D50000F9108950133110510F001E310E0EC014B
:100D60006091100270911102A8010E944B13C00FF4
:100D7000D11F1882EACF0F931F93CF93DF93EC011B
:100D800088819981009759F02A813B81261737077E
:100D900030F081E0DF91CF911F910F9108958B0189
:100DA0006F5F7F4F0E947E12009759F0998388836E
:100DB0001B830A832C813D81232B59F7FC01108270
:100DC000E8CF80E0E7CF1F920F920FB60F92112469
:100DD0002F933F934F935F936F937F938F939F9343
:100DE000AF93BF93EF93FF9383E791E00E94440298
:100DF000FF91EF91BF91AF919F918F917F916F91F3
:100E00005F914F913F912F910F900FBE0F901F90C8
:100E100018951F920F920FB60F9211242F938F9354
:100E20009F93EF93FF93E0918301F0918401808180
:100E3000E0918901F0918A0182FD1BC0908180912F
:100E40008C018F5F8F7320918D01821741F0E091AB
:100E50008C01F0E0ED58FE4F958F80938C01FF914F
:100E6000EF919F918F912F910F900FBE0F901F9038
:100E700018958081F4CF1F920F920FB60F92112414
:100E80002F933F938F939F93AF93BF9380916F0165
:100E900090917001A0917101B091720130916A013D
:100EA00023E0230F2D3758F50196A11DB11D209386
:100EB0006A0180936F0190937001A0937101B093C8
:100EC000720180916B0190916C01A0916D01B091C4
:100ED0006E010196A11DB11D80936B0190936C0171
:100EE000A0936D01B0936E01BF91AF919F918F91CF
:100EF0003F912F910F900FBE0F901F90189526E8ED
:100F0000230F0296A11DB11DD2CF1092760110922F
:100F1000750188EE93E0A0E0B0E0809377019093B4
:100F20007801A0937901B0937A018CE391E09093DA
:100F300074018093730185EC90E09093800180931D
:100F40007F0184EC90E0909382018093810180EC9A
:100F500090E0909384018093830181EC90E09093E2
:100F600086018093850182EC90E0909388018093C4
:100F7000870186EC90E090938A018093890110921A
:100F80008C0110928D0110928E0110928F0110929F
:100F9000110210921002109213021092120210927B
:100FA00015021092140270E060E080E192E00E946D
:100FB000BB062091100230911102811113C021153E
:100FC000310519F0C9010E94F51110921102109219
:100FD0001002109215021092140210921302109235
:100FE00012020895109215021092140267E671E041
:100FF000C9010C944413CF93DF93CDB7DEB7E497C8
:101000000FB6F894DEBF0FBECDBF789484B5826072
:1010100084BD84B5816084BD85B5826085BD85B59C
:10102000816085BD80916E00816080936E0010921A
:101030008100809181008260809381008091810095
:101040008160809381008091800081608093800026
:101050008091B10084608093B1008091B000816084
:101060008093B00080917A00846080937A008091B0
:101070007A00826080937A0080917A008160809308
:101080007A0080917A00806880937A001092C10083
:1010900060E089E00E94530360E08AE00E9453030D
:1010A00060E08FE00E945303E0918301F09184019E
:1010B00082E08083E0917F01F09180011082E091D5
:1010C0008101F09182018FEC808310928B01E0917D
:1010D0008701F091880186E08083E0918501F0919D
:1010E0008601808180618083E0918501F091860195
:1010F000808188608083E0918501F0918601808104
:1011000080688083E0918501F091860180818F7DE8
:10111000808361E082E00E94530361E083E00E94EB
:10112000530361E084E00E94530361E085E00E9484
:10113000530361E086E00E94530361E087E00E9470
:10114000530361E088E00E9453030BE010E010932A
:101150006702009366028DE090E0909369028093AD
:1011600068028CE090E090936B0280936A02109288
:101170006E0282E090E090936D0280936C0261E0D9
:101180008BE00E94530361E0809168020E94530348
:1011900061E080916A020E94530361E080916A02DB
:1011A0000E9425031093670200936602E6E2F2E0D4
:1011B000119282E0E636F807D9F710E000E080915E
:1011C0006C0290916D020817190744F540E06FE03A
:1011D000C8010E94DC0380916C0290916D02081797
:1011E00019072CF447E06BE0C8010E94DC0340E0E3
:1011F00069E0C8010E94DC03C8010E9439048091A3
:101200006C0290916D02081719072CF440E06CE015
:10121000C8010E94DC030F5F1F4FD1CF10E000E038
:1012200080916C0290916D0208171907BCF441E09F
:101230006CE0C8010E94DC0380916C0290916D0209
:10124000081719072CF448E06AE0C8010E94DC0383
:10125000C8010E9439040F5F1F4FE2CF81E08093E5
:101260006E02FE0131962F0185E7282E312C8FE08A
:101270000E94FC02019709F08CC689E00E94FC02E2
:101280008C01892B09F031C28AE00E94FC0201978F
:1012900009F02BC20E9461040E9461040E94D705DC
:1012A00021E0A80167E070E090E080E00E94740413
:1012B0007801F2E0EF0EF11C21E0A70167E070E099
:1012C00090E080E00E94740438018FEF681A780A79
:1012D00021E0A30166E070E090E080E00E947404E9
:1012E00021E0A80165E070E090E080E00E947404D5
:1012F00021E0A70165E070E090E080E00E947404C6
:1013000061E170E06619770980E591E00E9472065C
:10131000680196E0C91AD10821E0A60167E070E0F3
:1013200081E090E00E9474047801E8E0EE1AF10890
:1013300021E0A70167E070E081E090E00E94740482
:10134000A8014750510921E066E070E081E090E09B
:101350000E94740421E0A60165E070E081E090E065
:101360000E94740421E0A70165E070E081E090E054
:101370000E9474044801FAE18F1A910821E0A40147
:1013800064E070E090E080E00E94740458018BE11A
:10139000A81AB10821E0A50164E070E090E080E0C7
:1013A0000E94740468019CE1C91AD10821E0A601D9
:1013B00064E070E090E080E00E9474047801EDE168
:1013C000EE1AF10821E0A70164E070E090E080E00F
:1013D0000E94740421E0A40163E070E090E080E0EA
:1013E0000E94740421E0A50163E070E090E080E0D9
:1013F0000E94740421E0A60163E070E090E080E0C8
:101400000E94740421E0A70163E070E090E080E0B6
:101410000E9474044801F2E28F1A910821E0A401AD
:1014200064E070E081E090E00E947404580183E27F
:10143000A81AB10821E0A50164E070E081E090E025
:101440000E947404680194E2C91AD10821E0A6013F
:1014500064E070E081E090E00E9474047801E5E2CD
:10146000EE1AF10821E0A70164E070E081E090E06D
:101470000E94740421E0A40163E070E081E090E048
:101480000E94740421E0A50163E070E081E090E037
:101490000E94740421E0A60163E070E081E090E026
:1014A0000E94740421E0A70163E070E081E090E015
:1014B0000E9474046FE270E06619770983E591E099
:1014C0000E9472064801F0E68F1A910821E0A401FB
:1014D00064E070E090E080E00E947404580181E6CE
:1014E000A81AB10821E0A50164E070E090E080E076
:1014F0000E947404680192E6C91AD10821E0A6018D
:1015000064E070E090E080E00E9474047801E3E61B
:10151000EE1AF10821E0A70164E070E090E080E0BD
:101520000E94740421E0A40163E070E090E080E098
:101530000E94740421E0A50163E070E090E080E087
:101540000E94740421E0A60163E070E090E080E076
:101550000E94740421E0A70163E070E090E080E065
:101560000E9474044801F8E68F1A910821E0A40152
:1015700064E070E081E090E00E947404580189E624
:10158000A81AB10821E0A50164E070E081E090E0D4
:101590000E94740468019AE6C91AD10821E0A601E4
:1015A00064E070E081E090E00E9474047801EBE672
:1015B000EE1AF10821E0A70164E070E081E090E01C
:1015C0000E94740421E0A40163E070E081E090E0F7
:1015D0000E94740421E0A50163E070E081E090E0E6
:1015E0000E94740421E0A60163E070E081E090E0D5
:1015F0000E94740421E0A70163E070E081E090E0C4
:101600000E947404B101661977098BE591E00E948C
:1016100072066801FDEACF1AD10821E0A60167E051
:1016200070E090E080E00E94740478018FEAE81A8C
:10163000F10821E0A70167E070E090E080E00E94FF
:101640007404A8014E5A510921E066E070E090E070
:1016500080E00E94740421E0A60165E070E090E063
:1016600080E00E94740421E0A70165E070E090E052
:1016700080E00E947404680195EBC91AD10821E04A
:10168000A60167E070E081E090E00E9474047801B8
:10169000E7EBEE1AF10821E0A70167E070E081E0D6
:1016A00090E00E947404A801465B510921E066E0C5
:1016B00070E081E090E00E94740421E0A60165E002
:1016C00070E081E090E00E94740421E0A70165E0F1
:1016D00070E081E090E00E9474048FE00E94FC02C0
:1016E000892B09F00DC40E94610489E00E94FC026C
:1016F000892B09F032C28AE00E94FC02892B09F092
:101700002CC207E010E00E9461040E94D70521E08E
:10171000A80167E070E081E090E00E947404780125
:10172000F2E0EF1AF10821E0A70167E070E081E044
:1017300090E00E947404380181E0681A710821E089
:10174000A30166E070E081E090E00E94740421E073
:10175000A80165E070E081E090E00E94740421E05F
:10176000A70165E070E081E090E00E9474046801E8
:1017700096E0C90ED11C21E0A60167E070E090E080
:1017800080E00E9474047801E8E0EE0EF11C21E094
:10179000A70167E070E090E080E00E947404A80177
:1017A000495F5F4F21E066E070E090E080E00E94DA
:1017B000740421E0A60165E070E090E080E00E9402
:1017C000740421E0A70165E070E090E080E00E94F1
:1017D00074046EEB7FEF601B710B8BE591E00E9450
:1017E00072064801FDE48F0E911C21E0A40164E023
:1017F00070E081E090E00E94740458018EE4A80E2D
:10180000B11C21E0A50164E070E081E090E00E945D
:10181000740468019FE4C90ED11C21E0A60164E0B4
:1018200070E081E090E00E9474047801E0E5EE0E43
:10183000F11C21E0A70164E070E081E090E00E94EB
:10184000740421E0A40163E070E081E090E00E9474
:10185000740421E0A50163E070E081E090E00E9463
:10186000740421E0A60163E070E081E090E00E9452
:10187000740421E0A70163E070E081E090E00E9441
:1018800074044801F5E58F0E911C21E0A40164E089
:1018900070E090E080E00E947404580186E5A80E94
:1018A000B11C21E0A50164E070E090E080E00E94BE
:1018B0007404680197E5C90ED11C21E0A60164E01B
:1018C00070E090E080E00E9474047801E8E5EE0E9C
:1018D000F11C21E0A70164E070E090E080E00E944C
:1018E000740421E0A40163E070E090E080E00E94D5
:1018F000740421E0A50163E070E090E080E00E94C4
:10190000740421E0A60163E070E090E080E00E94B2
:10191000740421E0A70163E070E090E080E00E94A1
:10192000740466E77FEF601B710B83E591E00E9412
:1019300072064801F3E98F0E911C21E0A40164E0D6
:1019400070E081E090E00E947404580184E9A80EE0
:10195000B11C21E0A50164E070E081E090E00E940C
:101960007404680195E9C90ED11C21E0A60164E068
:1019700070E081E090E00E9474047801E6E9EE0EE8
:10198000F11C21E0A70164E070E081E090E00E949A
:10199000740421E0A40163E070E081E090E00E9423
:1019A000740421E0A50163E070E081E090E00E9412
:1019B000740421E0A60163E070E081E090E00E9401
:1019C000740421E0A70163E070E081E090E00E94F0
:1019D00074044801FBE98F0E911C21E0A40164E02E
:1019E00070E090E080E00E94740458018CE9A80E39
:1019F000B11C21E0A50164E070E090E080E00E946D
:101A0000740468019DE9C90ED11C21E0A60164E0BF
:101A100070E090E080E00E9474047801EEE9EE0E40
:101A2000F11C21E0A70164E070E090E080E00E94FA
:101A3000740421E0A40163E070E090E080E00E9483
:101A4000740421E0A50163E070E090E080E00E9472
:101A5000740421E0A60163E070E090E080E00E9461
:101A6000740421E0A70163E070E090E080E00E9450
:101A7000740467E57FEF601B710B80E591E00E94C5
:101A800072066801F2EBCF0ED11C21E0A60167E0DF
:101A900070E081E090E00E947404780184EBE80E2D
:101AA000F11C21E0A70167E070E081E090E00E9476
:101AB0007404A8014D545F4F21E066E070E081E0BE
:101AC00090E00E94740421E0A60165E070E081E0EE
:101AD00090E00E94740421E0A70165E070E081E0DD
:101AE00090E00E947404680193ECC90ED11C21E0BF
:101AF000A60167E070E090E080E00E947404780145
:101B0000E5ECEE0EF11C21E0A70167E070E090E04B
:101B100080E00E947404A8014C535F4F21E066E00E
:101B200070E090E080E00E94740421E0A60165E08E
:101B300070E090E080E00E94740421E0A70165E07D
:101B400070E090E080E00E9474048FE00E94FC024C
:101B5000892B09F0F6C10E94610489E00E94FC0211
:101B6000019709F0C0C10E9461040E94D70521E0DD
:101B700045E050E067E070E081E090E00E9474048E
:101B800021E047E050E067E070E081E090E00E94F3
:101B9000740421E046E050E066E070E081E090E00F
:101BA0000E94740421E045E050E065E070E081E0CF
:101BB00090E00E94740421E047E050E065E070E0AE
:101BC00081E090E00E947404C0900001D090010177
:101BD0000D2C000CEE08FF08C701B6010E94A903F6
:101BE0000E94610470E060E080E50E94A304C701E8
:101BF000B6010E94A9030E94610470E060E081E3E5
:101C00000E94A304C701B6010E94A9030E946104B7
:101C100021E042E050E064E070E081E090E00E946A
:101C2000740421E043E050E064E070E081E090E083
:101C30000E94740421E044E050E064E070E081E040
:101C400090E00E94740421E045E050E064E070E020
:101C500081E090E00E94740421E042E050E063E003
:101C600070E081E090E00E94740421E043E050E0E5
:101C700063E070E081E090E00E94740421E044E0C1
:101C800050E063E070E081E090E00E94740421E0A5
:101C900045E050E063E070E081E090E00E94740471
:101CA000C701B6010E94A9030E94610470E060E0D0
:101CB00087E40E94A304C701B6010E94A9030E9401
:101CC000610470E060E082E50E94A304C701B601F0
:101CD0000E94A9030E94610470E060E085E50E9413
:101CE000A304C701B6010E94A9030E94610470E029
:101CF00060E080E50E94A304C701B6010E94A90329
:101D00000E94610470E060E08FE40E94A304C701B8
:101D1000B6010E94A9030E94610470E060E084E3C0
:101D20000E94A304C701B6010E94A9030E94610496
:101D300021E042E050E064E070E081E090E00E9449
:101D4000740421E043E050E064E070E081E090E062
:101D50000E94740421E044E050E064E070E081E01F
:101D600090E00E94740421E045E050E064E070E0FF
:101D700081E090E00E94740421E042E050E063E0E2
:101D800070E081E090E00E94740421E043E050E0C4
:101D900063E070E081E090E00E94740421E044E0A0
:101DA00050E063E070E081E090E00E94740421E084
:101DB00045E050E063E070E081E090E00E94740450
:101DC000C701B6010E94A9030E94610470E060E0AF
:101DD00083E50E94A304C701B6010E94A9030E94E3
:101DE000610470E060E085E40E94A304C701B601CD
:101DF0000E94A9030E94610470E060E083E40E94F5
:101E0000A304C701B6010E94A9030E94610470E007
:101E100060E083E40E94A304C701B6010E94A90305
:101E20000E94610470E060E089E40E94A304C7019D
:101E3000B6010E94A9030E94610470E060E08FE493
:101E40000E94A304C701B6010E94A9030E94610475
:101E500070E060E08EE40E94A304C701B6010E9416
:101E6000A9030E94610470E060E082E40E94A30480
:101E7000C701B6010E94A9030E94610421E045E068
:101E800050E067E070E081E090E00E94740421E09F
:101E900047E050E067E070E081E090E00E94740469
:101EA00021E046E050E066E070E081E090E00E94D2
:101EB000740421E045E050E065E070E081E090E0EE
:101EC0000E94740421E047E050E065E070E081E0AA
:101ED00090E00E9474048FE00E94FC02892B09F0BC
:101EE0004DC00E94610480E090E0892B09F4BFC9D5
:101EF0000E943002882309F4B7C90E940000B4C9C7
:101F000089E00E94FC02019709F4EDCB89E00E9470
:101F1000FC02892B31F48AE00E94FC02892B09F42F
:101F2000E2CB6091000170910101072E000C880B3B
:101F3000990B0E94A9038301083C110509F0ACC963
:101F4000D4CB89E00E94FC02019709F404CE89E019
:101F50000E94FC02892B31F48AE00E94FC02019766
:101F600009F4F9CD6091000170910101072E000C78
:101F7000880B990B0E94A9038301C5CB89E00E94BD
:101F8000FC02892B09F4ADCFC701B6010E94A90359
:101F9000E4CD83E791E00E942402892B09F47CC000
:101FA0001A8219821C821B821E821D8270E060E0F0
:101FB000C2010E94BB0629813A8181112AC02115E4
:101FC000310519F0C9010E94F5111A8219821E8289
:101FD0001D821C821B820E94D60197FD22C08BAB02
:101FE0001CAA0D811E810F5F1F4FB801C2010E9404
:101FF000BB06882381F329813A818D819E81BE01B0
:102000006D5C7F4F820F931F0E9444131E830D83CC
:10201000E2CF1E821D8267E671E0C9010E9444136F
:10202000DACF8091100290911102009709F4BDC09F
:1020300069817A816115710509F4B5C04091120278
:10204000509113022D813E814217530708F4ABC013
:102050000E9444138D819E819093150280931402F7
:102060001E821D8289819A81009711F00E94F511CC
:10207000409114025091150260911002709111026A
:1020800083E791E00E94860142E050E065E671E05E
:1020900083E791E00E9486018091140290911502DD
:1020A000892B09F420CF89E00E94FC028C01892B46
:1020B00021F58AE00E94FC020197F9F4C2010E9416
:1020C00098060E94610460E170E0601B710BC20120
:1020D0000E9472068FE00E94FC02019751F08091ED
:1020E0001402909115028C599F4F8017910709F0A7
:1020F00073C00E9461040E94610489E00E94FC0296
:10210000892B21F58AE00E94FC028C01892BF1F4D5
:10211000C2010E9498060E946104B80169547109C5
:10212000C2010E9472068FE00E94FC02019751F0EA
:1021300080911402909115028C599F4F801791073E
:1021400009F057C00E9461040E94610489E00E9466
:10215000FC02019709F0C7CE89E00E94FC020197BA
:1021600009F0C1CE0E946104C2010E94980682015A
:102170002091140230911502C8018419950928177D
:10218000390708F43FC00E94610470E060E0F80184
:1021900081918F010E94A30460E273E080E090E0EF
:1021A0000E94A903E5CF0E94F51189819A8190933D
:1021B0001102809310028B819C8190931302809373
:1021C00012028D819E8190931502809314021A82CF
:1021D00019821C821B8244CF64E670E080E090E0AC
:1021E0000E94A9030F5F1F4F083C110509F06BCF38
:1021F00082CF64E670E080E090E00E94A9030F5F68
:102200001F4F8BCF89E00E94FC02892B09F469CE15
:102210006091000170910101072E000C880B990B51
:102220000E94A90399CF809110029091110200970A
:1022300011F00C94F51108952F923F924F925F92F6
:102240006F927F928F929F92AF92BF92CF92DF92C6
:10225000EF92FF920F931F93CF93DF93CDB7DEB72B
:10226000CA1BDB0B0FB6F894DEBF0FBECDBF0994BF
:102270002A88398848885F846E847D848C849B8416
:10228000AA84B984C884DF80EE80FD800C811B8124
:10229000AA81B981CE0FD11D0FB6F894DEBF0FBE53
:1022A000CDBFED010895EE0FFF1F0590F491E02DD5
:1022B00009940F931F93CF93DF938230910510F40D
:1022C00082E090E0E0917102F091720230E020E053
:1022D000B0E0A0E0309799F42115310509F44AC027
:1022E000281B390B24303105D8F58A819B81611573
:1022F000710589F1FB0193838283FE0111C0408146
:1023000051810281138148175907E0F04817590796
:1023100099F4109761F012960C93129713961C93F0
:102320003296CF01DF91CF911F910F9108950093C5
:10233000710210937202F4CF2115310551F042174A
:10234000530738F0A901DB019A01BD01DF01F80153
:10235000C1CFEF01F9CF9093720280937102CDCF7C
:10236000FE01E20FF31F81939193225031093983CB
:102370002883D7CF20916F0230917002232B41F434
:1023800020910401309105013093700220936F0277
:1023900020910201309103012115310541F42DB73F
:1023A0003EB74091060150910701241B350BE09187
:1023B0006F02F0917002E217F307A0F42E1B3F0B9F
:1023C0002817390778F0AC014E5F5F4F24173507A7
:1023D00048F04E0F5F1F5093700240936F0281933D
:1023E00091939FCFF0E0E0E09CCFCF93DF930097F5
:1023F000E9F0FC01329713821282A0917102B09130
:102400007202ED0130E020E01097A1F420813181CB
:10241000820F931F20916F023091700228173907A5
:1024200009F061C0F0937002E0936F02DF91CF91E9
:102430000895EA01CE17DF07E8F54A815B819E0126
:1024400041155105B1F7E901FB83EA83499159919F
:10245000C40FD51FEC17FD0761F4808191810296AE
:10246000840F951FE90199838883828193819B83DF
:102470008A83F0E0E0E012968D919C91139700978B
:10248000B9F52D913C911197CD010296820F931FC2
:1024900020916F02309170022817390739F6309772
:1024A00051F51092720210927102B0937002A093D3
:1024B0006F02BCCFD383C28340815181840F951FAB
:1024C000C817D90761F44E5F5F4F88819981480F23
:1024D000591F518340838A819B8193838283211575
:1024E000310509F0B0CFF0937202E09371029ECFF4
:1024F000FD01DC01C0CF13821282D7CFB0E0A0E093
:10250000E4E8F2E10C941E118C01009751F4CB0128
:102510000E9459118C01C801CDB7DEB7E0E10C94DF
:102520003A11FC01E60FF71F9C0122503109E21716
:10253000F30708F49DC0D901CD91DC911197C6171E
:10254000D70798F0C530D10530F3CE010497861730
:10255000970708F3C61BD70B2297C193D1936D93AE
:102560007C93CF010E94F511D6CF5B01AC1ABD0A56
:102570004C018C0E9D1EA0917102B0917202512CE3
:10258000412CF12CE12C109731F580916F02909144
:1025900070028815990509F05CC04616570608F0C8
:1025A00058C08091020190910301009741F48DB7CA
:1025B0009EB74091060150910701841B950BE817C7
:1025C000F90708F055C0F0937002E0936F02F9012B
:1025D00071836083A0CF8D919C91119712966C901E
:1025E000129713967C901397A815B90559F56C01AD
:1025F00042E0C40ED11CCA14DB0420F1AC014A191C
:102600005B09DA011296159780F06282738251831A
:102610004083D9016D937C93E114F10471F0D701EB
:102620001396FC93EE93129776CF22968C0F9D1FF4
:10263000F90191838083F301EFCFF0937202E0936D
:10264000710269CF4816590608F42C017D01D301A7
:102650009ACFCB010E9459117C01009749F0AE013D
:10266000B8010E943B13C8010E94F511870153CFA6
:1026700010E000E050CFFB01DC0102C001900D92A0
:1026800041505040D8F70895FB01DC0101900D92B4
:102690000020E1F70895FB01DC014150504048F073
:1026A00001900D920020C9F701C01D924150504089
:1026B000E0F7089511E0CAE5D1E004C0FE010E94F0
:0E26C00053112196CB35D107C9F7F894FFCFFF
:1026CE00F40100007302800000082A1C771C2A08FF
:1026DE0000010100000000000101000101000100E5
:1026EE0001010101000001000001010000010100D3
:1026FE0001000101000101000000000066028601D8
:10270E00B301B3022402C2011602320033003500B7
:10271E00503100475255504F2034005345434349E2
:08272E004F4E2042000D0A008D
:00000001FF
