:020000040000FA
:100000000C9463000C948B000C948B000C948B006C
:100010000C948B000C948B000C948B000C948B0034
:100020000C948B000C948B000C948B000C94FA03B2
:100030000C948B000C948B000C948B000C948B0014
:100040000C94B0030C948B000C947E030C94580316
:100050000C948B000C948B000C948B000C948B00F4
:100060000C948B000C948B000000000024002700EF
:100070002A0000000000250028002B0000000008D6
:10008000000201000003040700000000000000005F
:1000900000000000230026002900040404040404D6
:1000A0000404020202020202030303030303010227
:1000B00004081020408001020408102001020408F6
:1000C0001020A3045B0811241FBECFEFD8E0DEBFD1
:1000D000CDBF11E0A0E0B1E0EAEAF7E102C005908F
:1000E0000D92A634B107D9F722E0A6E4B1E001C031
:1000F0001D92A132B207E1F710E0C2E6D0E004C0E1
:100100002197FE010E94C709C136D107C9F70E9495
:10011000DE040C94C80B0C940000AF92BF92CF92F7
:10012000DF92EF92FF920F931F93CF93DF936C01B7
:100130007B018B01040F151FEB015E01AE18BF0898
:10014000C017D10759F06991D601ED91FC9101904A
:10015000F081E02DC6010995892B79F7C501DF9162
:10016000CF911F910F91FF90EF90DF90CF90BF90B4
:10017000AF900895FC01538D448D252F30E0842FDE
:1001800090E0821B930B541710F0CF9608950197BF
:100190000895FC01918D828D981761F0A28DAE0FAC
:1001A000BF2FB11D5D968C91928D9F5F9F73928F33
:1001B00090E008958FEF9FEF0895FC01918D828D5F
:1001C000981731F0828DE80FF11D858D90E008952C
:1001D0008FEF9FEF0895FC01918D228D892F90E084
:1001E000805C9F4F821B91098F73992708958AE73E
:1001F00091E00E94EB0021E0892B09F420E0822F9E
:10020000089580E090E0892B29F00E94F700811189
:100210000C9400000895FC01A48DA80FB92FB11D06
:10022000A35ABF4F2C91848D90E001968F7399272C
:10023000848FA689B7892C93A089B1898C9183700A
:1002400080648C93938D848D981306C00288F38903
:10025000E02D80818F7D80830895EF92FF920F9330
:100260001F93CF93DF93EC0181E0888F9B8D8C8D62
:1002700098131AC0E889F989808185FF15C09FB756
:10028000F894EE89FF896083E889F9898081837019
:10029000806480839FBF81E090E0DF91CF911F91C8
:1002A0000F91FF90EF900895F62E0B8D10E00F5FE9
:1002B0001F4F0F731127E02E8C8D8E110CC00FB6BF
:1002C00007FCFACFE889F989808185FFF5CFCE0157
:1002D0000E940B01F1CFEB8DEC0FFD2FF11DE35AC6
:1002E000FF4FF0829FB7F8940B8FEA89FB898081DA
:1002F0008062CFCFCF93DF93EC01888D8823B9F054
:10030000AA89BB89E889F9898C9185FD03C0808120
:1003100086FD0DC00FB607FCF7CF8C9185FFF2CF9D
:10032000808185FFEDCFCE010E940B01E9CFDF91E7
:10033000CF91089590E0FC01E458FF4F2491FC0117
:10034000E255FF4F3491FC01E656FF4FE491EE2356
:10035000C9F0222339F0233001F1A8F4213019F13A
:10036000223029F1F0E0EE0FFF1FEE58FF4FA5916C
:10037000B4918FB7F894EC91611126C030953E236B
:100380003C938FBF08952730A9F02830C9F024305E
:1003900049F7809180008F7D03C0809180008F7726
:1003A00080938000DFCF84B58F7784BDDBCF84B5A9
:1003B0008F7DFBCF8091B0008F778093B000D2CF3C
:1003C0008091B0008F7DF9CF3E2BDACFCF93DF93B2
:1003D00090E0FC01E255FF4F249186569F4FFC01AF
:1003E00084918823D1F090E0880F991FFC01E8598F
:1003F000FF4FA591B491FC01EE58FF4FC591D491E8
:1004000061110EC09FB7F8948C91E22FE0958E2376
:100410008C932881E223E8839FBFDF91CF910895D9
:100420008FB7F894EC91E22BEC938FBFF6CF1F932C
:10043000CF93DF93182FEB0161E00E94E601209734
:1004400039F460E0812FDF91CF911F910C949A01D4
:10045000CF3FD10511F461E0F5CFE12FF0E0E45892
:10046000FF4FE491E33031F140F4E130B1F0E2309C
:10047000E1F0C038D1057CF7E4CFE73029F1E8306E
:1004800059F1E430B1F78091800080628093800060
:10049000D0938B00C0938A0004C084B5806884BD6B
:1004A000C7BDDF91CF911F91089584B5806284BD4F
:1004B000C8BDF7CF80918000806880938000D09382
:1004C0008900C0938800EDCF8091B0008068809350
:1004D000B000C093B300E5CF8091B00080628093FC
:1004E000B000C093B400DDCF3FB7F89480917001A5
:1004F00090917101A0917201B091730126B5A89BF2
:1005000005C02F3F19F00196A11DB11D3FBFBA2FA5
:10051000A92F982F8827BC01CD01620F711D811D65
:10052000911D42E0660F771F881F991F4A95D1F7EA
:1005300008958F929F92AF92BF92CF92DF92EF92E7
:10054000FF924B015C010E9474026B017C010E94CE
:1005500074026C197D098E099F09683E73408105FC
:100560009105A8F321E0821A9108A108B10888EE4C
:10057000C80E83E0D81EE11CF11C81149104A10473
:10058000B10429F7FF90EF90DF90CF90BF90AF902C
:100590009F908F900895CF93DF93FC0101900020EE
:1005A000E9F73197AF01481B590BBC018AE791E08D
:1005B0000E948D00EC0142E050E068E171E08AE7C2
:1005C00091E00E948D008C0F9D1FDF91CF910895C7
:1005D000FC0180819181009711F00C94690A0895C3
:1005E000FC0124813581232B39F421E0FB0180813A
:1005F000882349F020E007C0808191810E94B80BD8
:1006000021E0892BB9F7822F08950F931F93CF9381
:10061000DF93EC0188819981009759F02A813B8111
:100620002617370730F081E0DF91CF911F910F91AE
:1006300008958B016F5F7F4F0E94F20A009759F077
:10064000998388831B830A832C813D81232B59F74F
:10065000FC011082E8CF80E0E7CFEF92FF920F938A
:100660001F93CF93DF93EC017B018A01BA010E94B3
:10067000050328813981811114C02115310519F034
:10068000C9010E94690A198218821D821C821B827C
:100690001A82CE01DF91CF911F910F91FF90EF90C1
:1006A00008951D830C83B701C9010E94C10BF1CFCE
:1006B0001F920F920FB60F9211242F933F934F93D7
:1006C0005F936F937F938F939F93AF93BF93EF93BA
:1006D000FF938AE791E00E940B01FF91EF91BF9198
:1006E000AF919F918F917F916F915F914F913F91CA
:1006F0002F910F900FBE0F901F9018951F920F9281
:100700000FB60F9211242F938F939F93EF93FF9324
:10071000E0918A01F0918B018081E0919001F0914C
:10072000910182FD1BC09081809193018F5F8F7337
:1007300020919401821741F0E0919301F0E0E65896
:10074000FE4F958F80939301FF91EF919F918F9131
:100750002F910F900FBE0F901F9018958081F4CFAE
:100760001F920F920FB60F9211242F933F938F93E6
:100770009F93AF93BF9380916C0190916D01A09175
:100780006E01B0916F0130916B0123E0230F2D3783
:1007900058F50196A11DB11D20936B0180936C014A
:1007A00090936D01A0936E01B0936F0180917001E1
:1007B00090917101A0917201B09173010196A11DF8
:1007C000B11D8093700190937101A0937201B09359
:1007D0007301BF91AF919F918F913F912F910F9096
:1007E0000FBE0F901F90189526E8230F0296A11DAB
:1007F000B11DD2CF1F920F920FB60F9211242F93DB
:100800003F938F939F93EF93FF9380916A0187FFAC
:100810001FC0109285001092840080916A018F5F42
:1008200080936A0180916A0187FF04C080916A0108
:100830008C30ACF0809184009091850004968034D7
:100840009C4990F1809184009091850004962EC07F
:1008500080916A0187FFE1CF80916A01DECF20910C
:10086000840030918500E0916A018E2FEE0F990B84
:10087000FC01EE0FFF1FE80FF91FEA5BFE4F8181BD
:100880009281820F931F90938900809388008091BA
:100890006A01FF91EF919F918F913F912F910F905E
:1008A0000FBE0F901F90189580E49CE990938900EB
:1008B000809388008FEF80936A01EBCFCF92DF9215
:1008C000EF92FF920F931F93E82FF92F05C001506D
:1008D00011092109310961F1908196239417B9F327
:1008E00005C0015011092109310911F190819623A8
:1008F0009413F7CFC12CD12CE12CF12C0AC08FEF2F
:10090000C81AD80AE80AF80A0C151D052E053F0575
:1009100079F080818623841791F36C2D7D2D8E2DA7
:100920009F2D1F910F91FF90EF90DF90CF90089532
:1009300060E070E080E090E01F910F91FF90EF90F9
:10094000DF90CF900895EAE7F1E01382128288EEFB
:1009500093E0A0E0B0E084839583A683B7838AE028
:1009600091E09183808385EC90E09587848784EC87
:1009700090E09787868780EC90E0918B808B81EC6C
:1009800090E0938B828B82EC90E0958B848B86EC4D
:1009900090E0978B868B118E128E138E148EE7E16A
:1009A000F2E011821082138212821582148250E0CA
:1009B00040E06AE171E0CF010C942D03CF93DF9307
:1009C00000D000D000D0CDB7DEB7789484B5826077
:1009D00084BD84B5816084BD85B5826085BD85B5E3
:1009E000816085BD80916E00816080936E00109261
:1009F00081008091810082608093810080918100DC
:100A0000816080938100809180008160809380006C
:100A10008091B10084608093B1008091B0008160CA
:100A20008093B00080917A00846080937A008091F6
:100A30007A00826080937A0080917A00816080934E
:100A40007A0080917A00806880937A001092C100C9
:100A5000E0918A01F0918B0182E08083E091860130
:100A6000F09187011082E0918801F09189018FEC6B
:100A7000808310929201E0918E01F0918F0186E0C7
:100A80008083E0918C01F0918D0180818061808371
:100A9000E0918C01F0918D01808188608083E091EC
:100AA0008C01F0918D01808180688083E0918C01C0
:100AB000F0918D0180818F7D808361E088E00E94CC
:100AC000E60161E089E00E94E60161E08AE00E94BF
:100AD000E60161E08BE00E94E60161E087E00E94B0
:100AE000E60161E086E00E94E60161E085E00E94A7
:100AF000E60161E082E00E94E60161E083E00E949D
:100B0000E60161E08CE00E94E60161E08DE00E9478
:100B1000E60160E083E00E94E60186E990E09093C0
:100B200075018093740144E0E42EF12C22242A9470
:100B3000312C62E0A62EB12CCC24C394D12C93E0AE
:100B4000892E912C23E2622E712C30E0432E30E06E
:100B5000532E61E084E00E94E60160E084E00E94A0
:100B60009A01C4010197F1F761E084E00E949A01C3
:100B7000C3010197F1F760E084E00E949A0160E010
:100B800084E00E94E601E2EBF0E06491EEE9F0E03F
:100B90008491E82FF0E0EE0FFF1FE057FF4F8591A3
:100BA000949100E412E42FE030E0462F0E945E04AE
:100BB000611571058105910529F06F5F7F4F8F4F9A
:100BC0009F4F9F700E9461082EEE35E24DE85CE376
:100BD0000E949C080E949109643171050CF04CC080
:100BE00070E060E088E00E94170270E060E089E059
:100BF0000E94170270E060E08AE00E94170270E035
:100C000060E08BE00E941702F0927901E092780197
:100C10008AE791E00E94EB00892B09F445C06AE065
:100C200070E080E090E00E9499028AE791E00E94E3
:100C3000C90089831A8200911B0210911C020F5F68
:100C40001F4FB80187E192E00E940503882301F35A
:100C5000209117023091180280911B0290911C0282
:100C6000BE016F5F7F4F820F931F0E94C10B1093D5
:100C70001C0200931B02CCCF6431710549F2009134
:100C8000740110917501B80188E00E941702B80143
:100C900089E00E941702B8018AE00E941702B80199
:100CA0008BE00E941702B4CF809178019091790176
:100CB0006AEF70E08130910509F4D9C18230910565
:100CC00009F0D0C170E060E087E00E9417026AEF8F
:100CD00070E086E00E94170270E060E085E00E940C
:100CE000170240911B0250911C024115510509F455
:100CF000ADC160911702709118028AE791E00E94DD
:100D00008D006BE171E087E192E00E94F0028823A0
:100D100009F4C3C1D0927701C09276018091760127
:100D200090917701892B09F0B3C083E291E00E9492
:100D3000CB0270E060E082E00E94170270E060E0A9
:100D400083E00E94170270E060E08CE00E941702CE
:100D500070E060E08DE00E9417021A8219821C8206
:100D60001B821E821D82609117027091180261150C
:100D7000710541F040911B0250911C02CE01019679
:100D80000E942D036CE271E0CE0101960E94F002F8
:100D90008823C9F070E060E088E00E9417020091AB
:100DA000740110917501B80189E00E941702B80121
:100DB0008AE00E941702B8018BE00E941702D092CD
:100DC0007901C092780160E371E0CE0101960E9442
:100DD000F0028823C9F00091740110917501B801E7
:100DE00088E00E94170270E060E089E00E9417022C
:100DF000B8018AE00E941702B8018BE00E94170236
:100E0000B0927901A09278016FE171E0CE01019674
:100E10000E94F0028823C1F00091740110917501C5
:100E2000B80188E00E941702B80189E00E94170209
:100E3000B8018AE00E941702B8018BE00E941702F5
:100E4000909279018092780164E371E0CE0101967D
:100E50000E94F0028823C1F070E060E088E00E9408
:100E6000170270E060E089E00E94170270E060E025
:100E70008AE00E94170270E060E08BE00E94170297
:100E8000F0927901E0927801CE0101960E94E80289
:100E90008091760190917701019709F0AFC070E0E1
:100EA00060E088E00E94170270E060E089E00E9444
:100EB000170270E060E08AE00E94170270E060E0D4
:100EC0008BE00E94170288E391E00E94CB021A8215
:100ED00019821C821B821E821D82609117027091F2
:100EE00018026115710541F040911B0250911C02DE
:100EF000CE0101960E942D036CE271E0CE010196B5
:100F00000E94F0028823C9F070E060E082E00E9455
:100F100017020091740110917501B80183E00E94DD
:100F20001702B8018CE00E941702B8018DE00E9400
:100F30001702D0927901C092780160E371E0CE018E
:100F400001960E94F0028823C9F00091740110916B
:100F50007501B80182E00E94170270E060E083E052
:100F60000E941702B8018CE00E941702B8018DE0C0
:100F70000E941702B0927901A09278016BE171E0B2
:100F8000CE0101960E94F0028823A1F00091740125
:100F900010917501B80182E00E941702B80183E048
:100FA0000E941702B8018CE00E941702B8018DE080
:100FB0000E94170264E371E0CE0101960E94F002E4
:100FC0008823C1F070E060E082E00E94170270E0C8
:100FD00060E083E00E94170270E060E08CE00E9415
:100FE000170270E060E08DE00E941702F092790134
:100FF000E0927801CE0101960E94E8026EE371E072
:1010000087E192E00E94F002882321F0309275017E
:101010002092740162E471E087E192E00E94F002A4
:10102000882331F086E990E09093750180937401F4
:1010300050E040E06AE171E087E192E00E942D0318
:1010400064E670E080E090E00E949902411451044F
:1010500009F47FCD0E94F700882309F470CD0E9427
:1010600000006DCD8330910541F470E060E087E0D1
:101070000E94170270E060E02CCE049709F031CE98
:1010800070E060E087E00E94170270E060E086E0B8
:101090000E9417026AEF70E021CE6FE171E087E1F4
:1010A00092E00E94F002882309F438CE1092770172
:1010B0001092760133CE87E192E00C94E802E89436
:1010C00009C097FB3EF490958095709561957F4F90
:1010D0008F4F9F4F9923A9F0F92F96E9BB2793953E
:1010E000F695879577956795B795F111F8CFFAF44E
:1010F000BB0F11F460FF1BC06F5F7F4F8F4F9F4F7F
:1011000016C0882311F096E911C0772321F09EE8DC
:10111000872F762F05C0662371F096E8862F70E042
:1011200060E02AF09A95660F771F881FDAF7880F1C
:101130009695879597F908950E94AF080C94200919
:101140000E94120938F00E94190920F0952311F02D
:101150000C9409090C940F0911240C9454090E9451
:10116000310970F3959FC1F3950F50E0551F629FB1
:10117000F001729FBB27F00DB11D639FAA27F00DF0
:10118000B11DAA1F649F6627B00DA11D661F829F17
:101190002227B00DA11D621F739FB00DA11D621FFC
:1011A000839FA00D611D221F749F3327A00D611D19
:1011B000231F849F600D211D822F762F6A2F1124FB
:1011C0009F5750409AF0F1F088234AF0EE0FFF1F2E
:1011D000BB1F661F771F881F91505040A9F79E3F85
:1011E000510580F00C9409090C9454095F3FE4F315
:1011F000983ED4F3869577956795B795F795E795DB
:101200009F5FC1F7FE2B880F911D9695879597F9E3
:10121000089597F99F6780E870E060E008959FEF78
:1012200080EC089500240A9416161706180609067D
:10123000089500240A94121613061406050608954C
:10124000092E0394000C11F4882352F0BB0F40F4D4
:10125000BF2B11F460FF04C06F5F7F4F8F4F9F4F14
:10126000089557FD9058440F551F59F05F3F71F096
:101270004795880F97FB991F61F09F3F79F08795FD
:101280000895121613061406551FF2CF4695F1DF86
:1012900008C0161617061806991FF1CF8695710516
:1012A000610508940895E894BB2766277727CB014A
:1012B00097F908952F923F924F925F926F927F928B
:1012C0008F929F92AF92BF92CF92DF92EF92FF9256
:1012D0000F931F93CF93DF93CDB7DEB7CA1BDB0B02
:1012E0000FB6F894DEBF0FBECDBF09942A883988A7
:1012F00048885F846E847D848C849B84AA84B984AE
:10130000C884DF80EE80FD800C811B81AA81B981B9
:10131000CE0FD11D0FB6F894DEBF0FBECDBFED01CD
:1013200008950E9498096894B1110C945409089585
:101330000E94390988F09F5798F0B92F9927B75123
:10134000B0F0E1F0660F771F881F991F1AF0BA9569
:10135000C9F714C0B13091F00E945309B1E008956B
:101360000C945309672F782F8827B85F39F0B93F5D
:10137000CCF3869577956795B395D9F73EF490951C
:101380008095709561957F4F8F4F9F4F0895EE0F19
:10139000FF1F0590F491E02D09940F931F93CF93B5
:1013A000DF938230910510F482E090E0E0911F021B
:1013B000F091200230E020E0B0E0A0E0309799F416
:1013C0002115310509F44AC0281B390B2430310599
:1013D000D8F58A819B816115710589F1FB019383A1
:1013E0008283FE0111C0408151810281138148171F
:1013F0005907E0F04817590799F4109761F01296D1
:101400000C93129713961C933296CF01DF91CF91D4
:101410001F910F91089500931F0210932002F4CFA3
:101420002115310551F04217530738F0A901DB01AE
:101430009A01BD01DF01F801C1CFEF01F9CF90930F
:10144000200280931F02CDCFFE01E20FF31F819394
:1014500091932250310939832883D7CF20911D02DF
:1014600030911E02232B41F420910201309103019F
:1014700030931E0220931D02209100013091010142
:101480002115310541F42DB73EB74091040150912B
:101490000501241B350BE0911D02F0911E02E2179D
:1014A000F307A0F42E1B3F0B2817390778F0AC0187
:1014B0004E5F5F4F2417350748F04E0F5F1F509364
:1014C0001E0240931D02819391939FCFF0E0E0E0D4
:1014D0009CCFCF93DF930097E9F0FC013297138202
:1014E0001282A0911F02B0912002ED0130E020E0B5
:1014F0001097A1F420813181820F931F20911D024A
:1015000030911E022817390709F061C0F0931E02BE
:10151000E0931D02DF91CF910895EA01CE17DF0716
:10152000E8F54A815B819E0141155105B1F7E9015A
:10153000FB83EA8349915991C40FD51FEC17FD072E
:1015400061F4808191810296840F951FE90199834E
:101550008883828193819B838A83F0E0E0E0129606
:101560008D919C9113970097B9F52D913C9111970E
:10157000CD010296820F931F20911D0230911E0211
:101580002817390739F6309751F51092200210923A
:101590001F02B0931E02A0931D02BCCFD383C2834F
:1015A00040815181840F951FC817D90761F44E5FA0
:1015B0005F4F88819981480F591F518340838A81E9
:1015C0009B81938382832115310509F0B0CFF0937D
:1015D0002002E0931F029ECFFD01DC01C0CF1382E9
:1015E0001282D7CFB0E0A0E0E8EFFAE00C945C09FB
:1015F0008C01009751F4CB010E94CD098C01C801E8
:10160000CDB7DEB7E0E10C947809FC01E60FF71FD7
:101610009C0122503109E217F30708F49DC0D9015B
:10162000CD91DC911197C617D70798F0C530D10539
:1016300030F3CE0104978617970708F3C61BD70B24
:101640002297C193D1936D937C93CF010E94690A35
:10165000D6CF5B01AC1ABD0A4C018C0E9D1EA09129
:101660001F02B0912002512C412CF12CE12C10973B
:1016700031F580911D0290911E028815990509F09F
:101680005CC04616570608F058C080910001909142
:101690000101009741F48DB79EB74091040150912C
:1016A0000501841B950BE817F90708F055C0F09366
:1016B0001E02E0931D02F90171836083A0CF8D911A
:1016C0009C91119712966C90129713967C90139799
:1016D000A815B90559F56C0142E0C40ED11CCA1415
:1016E000DB0420F1AC014A195B09DA011296159767
:1016F00080F06282738251834083D9016D937C9321
:10170000E114F10471F0D7011396FC93EE93129754
:1017100076CF22968C0F9D1FF90191838083F30170
:10172000EFCFF0932002E0931F0269CF48165906CD
:1017300008F42C017D01D3019ACFCB010E94CD0981
:101740007C01009749F0AE01B8010E94AF0BC801BF
:101750000E94690A870153CF10E000E050CFFB01DF
:10176000DC0102C001900D9241505040D8F708951D
:10177000FB01DC018D91019080190110D9F3990BC7
:101780000895FB01DC0101900D920020E1F708951E
:1017900010E0C2E6D0E004C0FE010E94C709219615
:1017A000C336D107C9F7F894FFCF000021028000AB
:1017B000000000002D018D00BA007A01EB00C90085
:1017C000DD000D0A006174720061646500416465AA
:1017D0006C616E746500697A71006465720064659D
:1017E000740041747261730076616C00766261000E
:107E0000112484B714BE81FFF0D085E080938100F7
:107E100082E08093C00088E18093C10086E0809377
:107E2000C20080E18093C4008EE0C9D0259A86E02C
:107E300020E33CEF91E0309385002093840096BBD3
:107E4000B09BFECF1D9AA8958150A9F7CC24DD24C4
:107E500088248394B5E0AB2EA1E19A2EF3E0BF2EE7
:107E6000A2D0813461F49FD0082FAFD0023811F036
:107E7000013811F484E001C083E08DD089C08234E0
:107E800011F484E103C0853419F485E0A6D080C0E4
:107E9000853579F488D0E82EFF2485D0082F10E0AE
:107EA000102F00270E291F29000F111F8ED06801E7
:107EB0006FC0863521F484E090D080E0DECF843638
:107EC00009F040C070D06FD0082F6DD080E0C81688
:107ED00080E7D80618F4F601B7BEE895C0E0D1E017
:107EE00062D089930C17E1F7F0E0CF16F0E7DF06D8
:107EF00018F0F601B7BEE89568D007B600FCFDCFD4
:107F0000A601A0E0B1E02C9130E011968C91119780
:107F100090E0982F8827822B932B1296FA010C0160
:107F200087BEE89511244E5F5F4FF1E0A038BF0790
:107F300051F7F601A7BEE89507B600FCFDCF97BE46
:107F4000E89526C08437B1F42ED02DD0F82E2BD052
:107F50003CD0F601EF2C8F010F5F1F4F84911BD097
:107F6000EA94F801C1F70894C11CD11CFA94CF0C13
:107F7000D11C0EC0853739F428D08EE10CD085E9AC
:107F80000AD08FE07ACF813511F488E018D01DD067
:107F900080E101D065CF982F8091C00085FFFCCF94
:107FA0009093C60008958091C00087FFFCCF809118
:107FB000C00084FD01C0A8958091C6000895E0E648
:107FC000F0E098E1908380830895EDDF803219F02E
:107FD00088E0F5DFFFCF84E1DECF1F93182FE3DFCA
:107FE0001150E9F7F2DF1F91089580E0E8DFEE27F6
:047FF000FF270994CA
:027FFE00040479
:00000001FF
