:020000040000FA
:100000000C945E000C9486000C9486000C94860080
:100010000C9486000C9486000C9486000C94A00529
:100020000C9486000C9486000C9486000C94860038
:100030000C9486000C9486000C9486000C94860028
:100040000C94FC050C9486000C9486000C9486009D
:100050000C9486000C9486000C9486000C94860008
:100060000C9486000C948600000000080002010039
:100070000003040700000000000000000200000070
:1000800000250028002B0000000000240027002A83
:100090000004040404040404040202020202020331
:1000A000030303030301020408102040800102043B
:1000B00008102001020408102000CB0611241FBEE6
:1000C000CFEFD8E0DEBFCDBF13E0A0E0B1E0E2E4C7
:1000D000F1E102C005900D92A83DB107D9F724E0E7
:1000E000A8EDB3E001C01D92AA30B207E1F710E01D
:1000F000CEE5D0E004C02197FE010E948A08CD35EC
:10010000D107C9F70E9446060C949F080C94000082
:1001100090E0FC01EB55FF4F24918F569F4FFC015F
:100120008491882399F090E0880F991FFC01E9578A
:10013000FF4FA591B491FC01E358FF4F8591949135
:100140008FB7F894EC91E22BEC938FBF0895AF92A8
:10015000BF92CF92DF92EF92FF920F931F93CF93B4
:10016000DF936C017B018B01040F151FEB015E0116
:10017000AE18BF08C017D10759F06991D601ED91AB
:10018000FC910190F081E02DC6010995892B79F74A
:10019000C501DF91CF911F910F91FF90EF90DF90FC
:1001A000CF90BF90AF90089590E0FC01E859FF4FC9
:1001B0002491FC01EB55FF4F3491FC01EF56FF4FAA
:1001C000E491EE23C9F0222339F0233001F1A8F4A1
:1001D000213019F1223029F1F0E0EE0FFF1FE35832
:1001E000FF4FA591B4918FB7F894EC91611126C09F
:1001F00030953E233C938FBF08952730A9F02830D7
:10020000C9F0243049F7809180008F7D03C0809130
:1002100080008F7780938000DFCF84B58F7784BD97
:10022000DBCF84B58F7DFBCF8091B0008F7780933B
:10023000B000D2CF8091B0008F7DF9CF3E2BDACFC6
:100240009091940389130BC0ECE7F0E0E4919FEFE9
:1002500090939403E13049F028F0E23061F060E0DF
:100260000C94D40010926E00FACF90916F009D7F95
:1002700090936F00F4CF909170009D7F90937000E9
:1002800091E09093B0009091B100987F946090932A
:10029000B1001092B300E3CF3FB7F8948091DD0333
:1002A0009091DE03A091DF03B091E00326B5A89BF7
:1002B00005C02F3F19F00196A11DB11D3FBFBA2FF8
:1002C000A92F982F8827BC01CD01620F711D811DB8
:1002D000911D42E0660F771F881F991F4A95D1F73D
:1002E00008952F923F924F925F926F927F928F92DA
:1002F0009F92AF92BF92CF92DF92EF92FF920F93B5
:100300001F93CF93DF93CDB7DEB72F970FB6F89437
:10031000DEBF0FBECDBF182F9D83F62E072F5E8741
:100320004D87032E000C440B550B60E67AEE80E0FF
:1003300090E00E9450083C872B87F9820A831B8338
:100340002D812C8310E000E08D859E85081719070C
:100350000CF07AC2E981FA8161917191FA83E983A3
:100360008B859C850E941A087A8769872B01770FF5
:1003700066087708EB81FC8121903190FC83EB8348
:1003800080919403873009F07BC0ECE7F0E0F491B2
:10039000FF87F7FD5FC187E00E948800FF85FF238C
:1003A00021F02F85223009F088C14101B12CA12C08
:1003B00060E072E18AE790E0A50191010E94500897
:1003C0002D833E834F83588769017A0181E0C81AE3
:1003D000D108E108F1089FEFC916D104E104F10446
:1003E00009F00CF40FC160E472E48FE090E0A50125
:1003F00091010E94500869017A01E1E0CE1AD1080A
:10040000E108F108FF85F23009F0B0C082E02FEF7B
:10041000C216D104E104F10409F00CF40EC260E943
:1004200070ED83E090E0A50191010E945008690100
:100430007A0181E0C81AD108E108F10883E09FEF52
:10044000C916D104E104F10409F00CF4F6C168E422
:1004500078EE81E090E0A50191010E9450086901C9
:100460007A0181E0C81AD108E108F1089FEFC916A6
:10047000D104E104F10411F00CF09CC084E0DDC172
:100480008F3F09F0E7C087E080939403ECE7F0E04A
:10049000F491FF87FF3F09F4DDC0F13029F150F0FE
:1004A000F23009F440C02F8527FDD4C087E00E94B8
:1004B000880077CF14BC15BC84B5826084BD85B537
:1004C000816085BDE8E9F0E08491E82FF0E0EE0F6F
:1004D000FF1FE358FF4F85919491ECEAF0E084917F
:1004E0008093E5031F8657CF109280001092810001
:1004F000809181008860809381008091810081607B
:1005000080938100E8E9F0E08491E82FF0E0EE0FBD
:10051000FF1FE358FF4F85919491ECEAF0E084913E
:100520008093E40338CF1092B0001092B100809114
:10053000B00082608093B0008091B10081608093B0
:10054000B100E8E9F0E08491E82FF0E0EE0FFF1F42
:10055000E358FF4F859194919093E3038093E203D6
:10056000ECEAF0E084918093E10315CFEFEFCE1633
:10057000D104E104F10409F00CF49DC068E478EEC4
:1005800081E090E0A50191010E94500869017A0183
:10059000F1E0CF1AD108E108F1082F85222309F4F0
:1005A00018C12FEFC216D104E104F10411F00CF0D0
:1005B00019C164CF64E274EF80E090E0A50194017A
:1005C0000E94500869017A0181E0C81AD108E10847
:1005D000F10885E09FEFC916D104E104F10409F0A8
:1005E00008F42BC162E17AE780E090E0A501940174
:1005F0000E94500869017A01E1E0CE1AD108E108B1
:10060000F10802C181E02F85211117C195B5987FAE
:10061000892B85BD2FEF3FEFA901411451046104DF
:10062000710409F074C08F85813009F48FC0823065
:1006300009F49EC081110EC0C7BC2093EE03309315
:10064000EF034093F0035093F10380916E008260BA
:1006500080936E00C301B2010E94210726E636E6B0
:1006600046EA5FE30E9485070E94E9066B01770F67
:10067000EE08FF080E944C014B015C01C114D1043B
:10068000E104F10409F484C00E944C01681979095D
:100690008A099B09683E73408105910578F391E0D2
:1006A000C91AD108E108F108E8EE8E0EE3E09E1EBB
:1006B000A11CB11CE3CF82E0A6CFB12CA12C60E03D
:1006C00072E18AE790E0A50191010E94500869015A
:1006D0007A0181E0C81AD108E108F108C114D104F7
:1006E00091E0E906F1040CF591E0FF85F13009F0A5
:1006F00091CF80918100887F892B809381002FEF9B
:100700003FEFA9014114510461047104F9F0910112
:10071000220F331FA985BA850E946F0828EE33E0A7
:1007200040E050E00E942E087ECF68E478EE81E041
:1007300090E0A50191010E94500869017A01E1E071
:10074000CE1AD108E108F10893E0CFCFD09289000A
:10075000C09288002093EA033093EB034093EC03AC
:100760005093ED0380916F00826080936F0072CF91
:10077000C092B3002093E6033093E7034093E8036D
:100780005093E9038091700082608093700062CF83
:1007900087E00E9420010F5F1F4FD6CD84E0FFEF5E
:1007A000CF16D104E104F10409F008F42FCFCD8075
:1007B000DE80EF80F8848AE0F594E794D794C794BC
:1007C0008A95D1F7E1E0CE1AD108E108F10885E079
:1007D0001DCF83E0FFEFCF16D104E104F10409F04F
:1007E0000CF414CF62E17AE780E090E0A501940177
:1007F0000E94500869017A01E1E0CE1AD108E108AF
:10080000F108FF85FF2351F286E09FEFC916D1045E
:10081000E104F10491F088F0CD80DE80EF80F8846F
:100820009AE0F594E794D794C7949A95D1F781E02C
:10083000C81AD108E108F10887E09091B100987FCB
:10084000892B8093B100E6CE2F960FB6F894DEBFC9
:100850000FBECDBFDF91CF911F910F91FF90EF9011
:10086000DF90CF90BF90AF909F908F907F906F90D0
:100870005F904F903F902F900895089590E080E012
:100880000895FC0101900020E9F73197AF01481B62
:10089000590BBC0182EF93E00C94A700CF93DF9338
:1008A000EC0160E08E810E94D40061E08E810E94A4
:1008B000D40060E08E810E94D4008BE891E0019723
:1008C000F1F7DF91CF910895CF92DF92EF92FF92EF
:1008D0000F931F93CF93DF936C017C0187E0E80EA9
:1008E000F11CD0E0C0E0062F10E0B8010C2E02C0D1
:1008F000759567950A94E2F76170F70181917F0120
:100900000E94D4002196C430D10579F7C601DF9149
:10091000CF911F910F91FF90EF90DF90CF900C94AB
:100920004E04CF92DF92EF92FF920F931F93CF93DB
:10093000DF93EC01F62E642F8C810E94D4008D8110
:100940008F3F19F060E00E94D4000F2D10E08F85DA
:1009500084FF25C06E0187E0C80ED11CF12CE12C6C
:10096000B8010E2C02C0759567950A94E2F7617084
:10097000F60181916F010E94D400FFEFEF1AFF0A88
:1009800088E0E816F10461F7CE01DF91CF911F9165
:100990000F91FF90EF90DF90CF900C944E04B80130
:1009A00084E0759567958A95E1F7CE010E9464040D
:1009B0006F2DCE01DF91CF911F910F91FF90EF909E
:1009C000DF90CF900C94640440E0682F82EF93E0B6
:1009D0000C949104CF93DF93823029F49091010419
:1009E000986090930104809305041092060480E4BB
:1009F0008093070480E18093080480E580930904D4
:100A00008091F6030E9488008091F7038F3F11F0D8
:100A10000E9488008091F8030E948800C2EFD3E012
:100A20009E01225F33408091010484FD0AC084E06E
:100A300090E02196281739073CF48E810E948800A7
:100A4000EFCF88E090E0F5CF8BE39DE00197F1F7E1
:100A500060E08091F6030E94D40060E08091F8038A
:100A60000E94D4008091F7038F3F19F060E00E944C
:100A7000D4008091010484FD39C063E082EF93E0EB
:100A80000E946404CBE4D6E4CE010197F1F763E061
:100A900082EF93E00E9464042197F1F763E082EF14
:100AA00093E00E94640483E592E00197F1F762E02D
:100AB00082EF93E00E9464048091010480620E94AE
:100AC000E40484E0809302048CE00E94E40481E06A
:100AD0000E94E4048BE39FE10197F1F782E08093A9
:100AE000030486E0DF91CF910C94E40480620E94BD
:100AF000E4048BE496E40197F1F7809101048062AD
:100B00000E94E40483E592E00197F1F780910104EB
:100B100080620E94E404D0CFE0910504E23040F40A
:100B2000E150F0E0EE50FC4F848980680C94E404BE
:100B3000E1E0F7CF41E00E94910481E090E0089568
:100B40001F920F920FB60F9211242F933F934F9342
:100B50005F936F937F938F939F93AF93BF93EF9325
:100B6000FF938091E6039091E703A091E803B09191
:100B7000E903892B8A2B8B2BD1F19091E103E09132
:100B8000E203F091E3038081892780838091E6036B
:100B90009091E703A091E803B091E90318161906B4
:100BA0001A061B069CF48091E6039091E703A0913E
:100BB000E803B091E9030197A109B1098093E60325
:100BC0009093E703A093E803B093E903FF91EF91BB
:100BD000BF91AF919F918F917F916F915F914F9155
:100BE0003F912F910F900FBE0F901F9018958091FD
:100BF00094030E942001EACF1F920F920FB60F922A
:100C000011242F933F938F939F93AF93BF93809122
:100C1000D9039091DA03A091DB03B091DC0330910A
:100C2000D80323E0230F2D3758F50196A11DB11DE0
:100C30002093D8038093D9039093DA03A093DB0326
:100C4000B093DC038091DD039091DE03A091DF037C
:100C5000B091E0030196A11DB11D8093DD03909337
:100C6000DE03A093DF03B093E003BF91AF919F91A8
:100C70008F913F912F910F900FBE0F901F9018955D
:100C800026E8230F0296A11DB11DD2CF789484B51A
:100C9000826084BD84B5816084BD85B5826085BD78
:100CA00085B5816085BD80916E00816080936E0006
:100CB00010928100809181008260809381008091F8
:100CC00081008160809381008091800081608093A9
:100CD00080008091B10084608093B1008091B00069
:100CE00081608093B00080917A00846080937A0064
:100CF00080917A00826080937A0080917A0081608E
:100D000080937A0080917A00806880937A001092B4
:100D1000C10082E00E94EA0481EA93E00E9441045B
:100D20000E948C058CEA93E00E94410422E330E0AB
:100D30004EE650E06CED71E088EB92E00E947101AC
:100D400082E00E94EA0486EB93E00E9441040E9444
:100D50008C058CEA93E00E9441042EE130E047E3E9
:100D600050E060E071E08EE691E00E94710182E067
:100D70000E94EA0485EC93E00E9441040E948C05E5
:100D80008DEC93E00E944104C0E0D0E02097F1F3A5
:100D90000E940000FBCFE2EFF3E01382128289E9A8
:100DA00093E0918380838DE084838FEF85838CE053
:100DB00086838BE087838AE0808789E0818788E06B
:100DC00082871386148615861686178681E00C9412
:100DD000EA040E94F0066894B1110C947F0708950C
:100DE0000E94640788F09F5798F0B92F9927B75150
:100DF000B0F0E1F0660F771F881F991F1AF0BA95BF
:100E0000C9F714C0B13091F00E947E07B1E0089597
:100E10000C947E07672F782F8827B85F39F0B93F89
:100E2000CCF3869577956795B395D9F73EF4909571
:100E30008095709561957F4F8F4F9F4F0895E894EF
:100E400009C097FB3EF490958095709561957F4F12
:100E50008F4F9F4F9923A9F0F92F96E9BB279395C0
:100E6000F695879577956795B795F111F8CFFAF4D0
:100E7000BB0F11F460FF1BC06F5F7F4F8F4F9F4F01
:100E800016C0882311F096E911C0772321F09EE85F
:100E9000872F762F05C0662371F096E8862F70E0C5
:100EA00060E02AF09A95660F771F881FDAF7880F9F
:100EB0009695879597F9089557FD9058440F551FBB
:100EC00059F05F3F71F04795880F97FB991F61F0CC
:100ED0009F3F79F087950895121613061406551F43
:100EE000F2CF4695F1DF08C0161617061806991FAF
:100EF000F1CF86957105610508940895E894BB27A4
:100F000066277727CB0197F908950E9498070C94DC
:100F100009080E94FB0738F00E94020820F0952380
:100F200011F00C94F2070C94F80711240C947F072D
:100F30000E945C0770F3959FC1F3950F50E0551F19
:100F4000629FF001729FBB27F00DB11D639FAA271E
:100F5000F00DB11DAA1F649F6627B00DA11D661F6D
:100F6000829F2227B00DA11D621F739FB00DA11D8E
:100F7000621F839FA00D611D221F749F3327A00D48
:100F8000611D231F849F600D211D822F762F6A2FE4
:100F900011249F5750409AF0F1F088234AF0EE0F49
:100FA000FF1FBB1F661F771F881F91505040A9F776
:100FB0009E3F510580F00C94F2070C947F075F3F31
:100FC000E4F3983ED4F3869577956795B795F795B2
:100FD000E7959F5FC1F7FE2B880F911D969587952A
:100FE00097F9089597F99F6780E870E060E00895A9
:100FF0009FEF80EC089500240A9416161706180631
:101000000906089500240A9412161306140605060C
:101010000895092E0394000C11F4882352F0BB0F9D
:1010200040F4BF2B11F460FF04C06F5F7F4F8F4F00
:101030009F4F089597FB072E16F4009407D077FD75
:1010400009D00E94760807FC05D03EF49095819562
:101050009F4F0895709561957F4F0895A1E21A2ED4
:10106000AA1BBB1BFD010DC0AA1FBB1FEE1FFF1F4C
:10107000A217B307E407F50720F0A21BB30BE40B9C
:10108000F50B661F771F881F991F1A9469F76095E3
:101090007095809590959B01AC01BD01CF0108959D
:1010A000052E97FB1EF400940E94670857FD07D099
:1010B0000E942E0807FC03D04EF40C94670850954C
:1010C0004095309521953F4F4F4F5F4F0895909534
:1010D0008095709561957F4F8F4F9F4F08950E9427
:1010E0009008B7FF0895821B930B0895AA1BBB1BA2
:1010F00051E107C0AA1FBB1FA617B70710F0A61B18
:10110000B70B881F991F5A95A9F780959095BC0138
:10111000CD010895EE0FFF1F0590F491E02D099485
:10112000A29FB001B39FC001A39F700D811D112428
:10113000911DB29F700D811D1124911D0895F89489
:10114000FFCF0200040002000800080002000400B3
:101150000200040002000400020004000200080073
:101160000800020004000200040002000800080059
:101170000200040002000400020004000200040057
:101180000100080004000200040002000800020040
:10119000080008000200020002000200080004002B
:1011A0000800020008000200080008000800010012
:1011B0004A0188012601060126014A01880126010B
:1011C00000004A0188014B020B0288015D014A01BF
:1011D000260100004A0188012601060126014A0174
:1011E0008801260100004A0188014B020B02880198
:1011F0004B020B0288015D014A015D014A010601B3
:101200005D014A0126014A012601DC0088015D01D9
:101210004A015D014A0106015D010B020000060062
:101220000600060006000600060006000600040090
:101230000600060006000600040006000600060080
:101240000600040006000600060006000600060070
:101250000600060006000600040006000600060060
:101260000600040006000600060006000400060052
:101270000600060006000300060006000600030044
:101280000600060006000300060006000600040033
:10129000060006000600060006000600060006001E
:1012A000060006000600060006000600060006000E
:1012B0000600060006000600040006000600060000
:1012C00006000400060006000600060004000600F2
:1012D00006000600060006000600060006000600DE
:1012E00006000400060006000600060004000600D2
:1012F000060006000600020004002705DD0427059D
:10130000DD042705DC0397041704700301000B02BA
:1013100093027003DC03010093023F03DC03170414
:10132000010093022705DD042705DD042705DC0302
:1013300097041704700301000B0293027003DC038F
:10134000010093021704DC0370030100DC0317049F
:10135000970427051003750527059704BA0227058A
:1013600097041704930297041704DC030100930207
:1013700027050100010027054D0A0100DD042705AE
:101380000100DD042705DD042705DD042705DC0356
:1013900097041704700301000B0293027003DC032F
:1013A000010093023F03DC031704010093022705A9
:1013B000DD042705DD042705DC039704170470030B
:1013C00001000B0293027003DC0301009302170477
:1013D000DC0370030100FF000000009A05A7003E37
:1013E000043D045041524120454C49534100454E73
:1013F00020435552534F20005A454C444153204CF2
:10140000554C4C4142590053494E204D41530043E5
:0A141000414E43494F4E4553000082
:107E0000112484B714BE81FFF0D085E080938100F7
:107E100082E08093C00088E18093C10086E0809377
:107E2000C20080E18093C4008EE0C9D0259A86E02C
:107E300020E33CEF91E0309385002093840096BBD3
:107E4000B09BFECF1D9AA8958150A9F7CC24DD24C4
:107E500088248394B5E0AB2EA1E19A2EF3E0BF2EE7
:107E6000A2D0813461F49FD0082FAFD0023811F036
:107E7000013811F484E001C083E08DD089C08234E0
:107E800011F484E103C0853419F485E0A6D080C0E4
:107E9000853579F488D0E82EFF2485D0082F10E0AE
:107EA000102F00270E291F29000F111F8ED06801E7
:107EB0006FC0863521F484E090D080E0DECF843638
:107EC00009F040C070D06FD0082F6DD080E0C81688
:107ED00080E7D80618F4F601B7BEE895C0E0D1E017
:107EE00062D089930C17E1F7F0E0CF16F0E7DF06D8
:107EF00018F0F601B7BEE89568D007B600FCFDCFD4
:107F0000A601A0E0B1E02C9130E011968C91119780
:107F100090E0982F8827822B932B1296FA010C0160
:107F200087BEE89511244E5F5F4FF1E0A038BF0790
:107F300051F7F601A7BEE89507B600FCFDCF97BE46
:107F4000E89526C08437B1F42ED02DD0F82E2BD052
:107F50003CD0F601EF2C8F010F5F1F4F84911BD097
:107F6000EA94F801C1F70894C11CD11CFA94CF0C13
:107F7000D11C0EC0853739F428D08EE10CD085E9AC
:107F80000AD08FE07ACF813511F488E018D01DD067
:107F900080E101D065CF982F8091C00085FFFCCF94
:107FA0009093C60008958091C00087FFFCCF809118
:107FB000C00084FD01C0A8958091C6000895E0E648
:107FC000F0E098E1908380830895EDDF803219F02E
:107FD00088E0F5DFFFCF84E1DECF1F93182FE3DFCA
:107FE0001150E9F7F2DF1F91089580E0E8DFEE27F6
:047FF000FF270994CA
:027FFE00040479
:00000001FF
