:100000000C9462000C948A000C948A000C948A0070
:100010000C948A000C948A000C948A000C948A0038
:100020000C948A000C948A000C948A000C948A0028
:100030000C948A000C948A000C948A000C948A0018
:100040000C9421050C948A000C948A000C948A006C
:100050000C948A000C948A000C948A000C948A00F8
:100060000C946B050C948A0000000000240027000B
:100070002A0000000000250028002B0000000000DE
:1000800023002600290004040404040404040202DA
:100090000202020203030303030301020408102007
:1000A0004080010204081020010204081020000012
:1000B0000008000201000003040700000000000027
:1000C00000008A0611241FBECFEFD8E0DEBFCDBFEF
:1000D00011E0A0E0B1E0E6ECF8E102C005900D927D
:1000E000AE36B107D9F722E0AEE6B1E001C01D920D
:1000F000AF35B207E1F710E0C2E6D0E004C02197C7
:10010000FE010E948309C136D107C9F70E94B806D3
:100110000C94610C0C94000008950895AF92BF9266
:10012000CF92DF92EF92FF920F931F93CF93DF93C3
:100130006C017B018B01040F151FEB015E01AE18F2
:10014000BF08C017D10759F06991D601ED91FC9114
:100150000190F081E02DC6010995892B79F7C50141
:10016000DF91CF911F910F91FF90EF90DF90CF9093
:10017000BF90AF900895833081F028F4813099F0DA
:100180008230A9F008958730A9F08830C9F0843012
:10019000B1F4809180008F7D03C0809180008F77C3
:1001A00080938000089584B58F7784BD089584B5C9
:1001B0008F7DFBCF8091B0008F778093B000089542
:1001C0008091B0008F7DF9CF1F93CF93DF93282FBD
:1001D00030E0F901E255FF4F8491F901E656FF4FF7
:1001E000D491F901EA57FF4FC491CC23A9F0162FFF
:1001F00081110E94BB00EC2FF0E0EE0FFF1FEE58C4
:10020000FF4FA591B4918FB7F894EC91111108C0EC
:10021000D095DE23DC938FBFDF91CF911F9108959E
:10022000DE2BF8CFCF93DF9390E0FC01E656FF4F33
:1002300024918A579F4FFC0184918823D1F090E04C
:10024000880F991FFC01E859FF4FA591B491FC015B
:10025000EE58FF4FC591D49161110EC09FB7F8942D
:100260008C91E22FE0958E238C932881E223E88302
:100270009FBFDF91CF9108958FB7F894EC91E22B57
:10028000EC938FBFF6CF3FB7F8948091B701909170
:10029000B801A091B901B091BA0126B5A89B05C0DB
:1002A0002F3F19F00196A11DB11D3FBFBA2FA92FF5
:1002B000982F8827BC01CD01620F711D811D911DF2
:1002C00042E0660F771F881F991F4A95D1F708955E
:1002D0008F929F92AF92BF92CF92DF92EF92FF9256
:1002E0000E9443014B015C0184E6C82ED12CE12C15
:1002F000F12C0E944301681979098A099B09683E1B
:10030000734081059105A8F321E0C21AD108E108E4
:10031000F10888EE880E83E0981EA11CB11CC11460
:10032000D104E104F10429F7FF90EF90DF90CF9022
:10033000BF90AF909F908F900895089520918F0166
:10034000260F3327331F21323105ECF4209111029F
:10035000FC0190E080E0243069F082E00895A091F3
:100360008F012191AC0141595E4FA40FB52FB11DF2
:100370002C930196861798F380918F01680F6093F4
:100380008F0180E0089581E008951092110281E0CC
:10039000809310021092EB0161E082E10E94E40080
:1003A00061E083E10E94E400E9EBF0E080818E7F70
:1003B000808380818D7F808388E48093B80085E48A
:1003C0008093BC000895CF93DF9391E090936E01EA
:1003D0008823B9F0C091B800D091BA008091BC00D8
:1003E0008A7B8093BC0060E082E10E94E40060E0D0
:1003F00083E10E94E4000E94C501D093BA00C0933B
:10040000B800DF91CF9108958F929F92AF92BF92E3
:10041000CF92DF92EF92FF920F931F93CF93DF93D0
:10042000D0913A02D13208F0D7C0182FC0913902CA
:100430000E9443016B017C018091110281116BC00C
:1004400082E080931102109310028FEF80930F02CD
:1004500010920E02D0930D02A9E1B2E0EDEEF1E0B0
:1004600080E0D81391C01092EC018091EC01CC0F88
:10047000C82BC093EC018091EB01813009F088C05A
:100480001092EB010E9443016B017C018091EC0111
:100490008093BB008091130290911402A0911502E9
:1004A000B0911602892B8A2B8B2BA1F00E9443015D
:1004B000009113021091140220911502309116023E
:1004C0006C197D098E099F09061717072807390738
:1004D00008F442C08091BC0083FDD8CF85EC8093A6
:1004E000BC000E9443016B017C01809111028230AB
:1004F00009F450C080910F028F3F09F46FC08091C2
:100500000F02803209F46CC080910F02803309F42D
:1005100069C084E026C08091130290911402A091DA
:100520001502B0911602892B8A2B8B2B09F484CFEC
:100530000E9443018090130290901402A090150233
:10054000B09016026C197D098E099F0986169706D0
:10055000A806B90608F070CF809112020E94E3014C
:1005600085E01092180210923A0210921702DF9161
:10057000CF911F910F91FF90EF90DF90CF90BF90A0
:10058000AF909F908F9008959D9191938F5F69CFC9
:1005900085EEA5CF8091130290911402A0911502CF
:1005A000B0911602892B8A2B8B2B09F49ECF0E94C7
:1005B0004301009113021091140220911502309111
:1005C00016026C197D098E099F090617170728075F
:1005D000390708F08ACFC0CF81E0C3CF80E0C1CF18
:1005E00082E0BFCF83E0BDCF0895E091C00180914C
:1005F000BF01E81730F4F0E0EF53FE4F808190E048
:1006000008958FEF9FEF08959091C0018091BF01F1
:100610002FEF3FEF981748F4E92FF0E0EF53FE4F2C
:10062000208130E09F5F9093C001C90108958091BF
:10063000BF019091C001891B990B0895CF92DF9261
:10064000EF92FF920F931F93CF93DF937C01CB0127
:100650008A0120911702222389F0EB016B01C40E5D
:10066000D51ECC15DD0569F06991D701ED91FC919E
:100670000190F081E02DC7010995F3CF642F0E940E
:100680009E01C801DF91CF911F910F91FF90EF90D4
:10069000DF90CF900895CF93DF931F92CDB7DEB751
:1006A0006983209117022223F9F020913A02203227
:1006B00058F021E030E0FC013383228390E080E0B9
:1006C0000F90DF91CF91089580911802E82FF0E00C
:1006D000E75EFD4F998190838F5F8093180280932E
:1006E0003A0281E090E0ECCF61E0CE0101960E94F9
:1006F0009E01F7CF682F8BE392E00C944B0390E0C0
:1007000080E00895FC0101900020E9F73197AF01E6
:10071000481B590BBC0187E492E00C948E00CF93E8
:10072000DF93EC0160E08E810E94E40061E08E8145
:100730000E94E40060E08E810E94E4008BE891E07A
:100740000197F1F7DF91CF910895CF92DF92EF9269
:10075000FF920F931F93CF93DF936C017C0187E08F
:10076000E80EF11CD0E0C0E0062F10E0B8010C2E1E
:1007700002C0759567950A94E2F76170F70181915F
:100780007F010E94E4002196C430D10579F7C601AB
:10079000DF91CF911F910F91FF90EF90DF90CF905D
:1007A0000C948F03CF92DF92EF92FF920F931F93DF
:1007B000CF93DF93EC01F62E642F8C810E94E4002E
:1007C0008D818F3F19F060E00E94E4000F2D10E052
:1007D0008F8584FF25C06E0187E0C80ED11CF12CE7
:1007E000E12CB8010E2C02C0759567950A94E2F7CA
:1007F0006170F60181916F010E94E400FFEFEF1A32
:10080000FF0A88E0E816F10461F7CE01DF91CF918D
:100810001F910F91FF90EF90DF90CF900C948F037A
:10082000B80184E0759567958A95E1F7CE010E943D
:10083000A5036F2DCE01DF91CF911F910F91FF90F6
:10084000EF90DF90CF900C94A50340E0682F87E4F1
:1008500092E00C94D20381E00E9425048BE39FE197
:100860000197F1F70895CF93DF93823029F49091A7
:10087000560298609093560280935A0210925B023F
:1008800080E480935C0280E180935D0280E5809348
:100890005E0261E080914B020E94120180914C0245
:1008A0008F3F19F061E00E94120161E080914D02DA
:1008B0000E941201C7E4D2E09E0127543240809189
:1008C000560284FD0BC084E090E02196281739077A
:1008D00044F461E08E810E941201EECF88E090E046
:1008E000F4CF8BE39DE00197F1F760E080914B023C
:1008F0000E94E40060E080914D020E94E40080913B
:100900004C028F3F19F060E00E94E4008091560293
:1009100084FD34C063E087E492E00E94A503CBE449
:10092000D6E4CE010197F1F763E087E492E00E94FC
:10093000A5032197F1F763E087E492E00E94A50305
:1009400083E592E00197F1F762E087E492E00E948C
:10095000A5038091560280620E94250484E0809362
:1009600057028CE00E9425040E942B0482E08093B1
:10097000580286E0DF91CF910C94250480620E949A
:1009800025048BE496E40197F1F78091560280628A
:100990000E94250483E592E00197F1F780915602C9
:1009A00080620E942504D5CF90915A02691710F0F9
:1009B0006FEF690FE62FF0E0E95BFD4F9489890F37
:1009C00080680C94250441E00E94D20381E090E00D
:1009D000089585ED8093BC008091130290911402DC
:1009E000A0911502B09116020796A11DB11D23E03A
:1009F000B695A795979587952A95D1F72091BC0034
:100A000024FD03C0109211020895409113025091E9
:100A100014026091150270911602452B462B472B4C
:100A200069F30097A105B10541F025E32A95F1F797
:100A300000000197A109B109E1CF809112020C9445
:100A4000E3011F920F920FB60F9211242F933F9341
:100A50008F939F93AF93BF938091B3019091B40113
:100A6000A091B501B091B6013091B20123E0230FFE
:100A70002D3758F50196A11DB11D2093B201809329
:100A8000B3019093B401A093B501B093B6018091E6
:100A9000B7019091B801A091B901B091BA01019646
:100AA000A11DB11D8093B7019093B801A093B90126
:100AB000B093BA01BF91AF919F918F913F912F91C8
:100AC0000F900FBE0F901F90189526E8230F0296E7
:100AD000A11DB11DD2CF1F920F920FB60F921124FC
:100AE0002F933F934F935F936F937F938F939F9336
:100AF000AF93BF93EF93FF938091B900887F8036C7
:100B000009F44AC0F0F5883209F4A7C018F580311D
:100B100009F49BC0B8F4882309F4F9C0883009F4BB
:100B200094C0FF91EF91BF91AF919F918F917F9171
:100B30006F915F914F913F912F910F900FBE0F904A
:100B40001F901895883109F488C0803251F780933E
:100B50000F0214C0803409F49DC040F48033B9F30F
:100B60008833F9F680930F0285ECB0C0803509F424
:100B700085C0883509F496C0883499F60E94E90446
:100B8000D0CF883909F48CC038F5883729F050F473
:100B9000883611F0803729F683E080931102109295
:100BA000B10157C0883809F47BC0803919F080380A
:100BB00009F0B7CF8091B101803208F071C0E091A7
:100BC000B10181E08E0F8093B1018091BB00F0E014
:100BD000EF56FE4F80833DC0803B39F0E0F4803A11
:100BE00009F479C0883A09F09CCF84E0809311021F
:100BF0001092900110928F01E091BD01F091BE0121
:100C0000099580918F0181110FC081E080938F0140
:100C100010926F0109C0803C09F4A6CF883C09F40A
:100C2000A3CF883B09F07DCFE091900181E08E0F4A
:100C300080939001F0E0E159FE4F80818093BB00EA
:100C40009091900180918F0129C08091EC01809357
:100C5000BB0085EC8093BC0064CF90910E02809124
:100C60000D02981758F5E0910E0281E08E0F8093E7
:100C70000E02F0E0E351FE4F8081E9CFE0910E02D9
:100C800081E08E0F80930E028091BB00F0E0E35173
:100C9000FE4F808390910E0280910D029817C8F24A
:100CA00085E8D8CFE0910E0281E08E0F80930E028E
:100CB0008091BB00F0E0E351FE4F808380911002F1
:100CC00081115CCF81E08093EB0184EA8093BC00CA
:100CD0001092110226CF85EC8093BC001092110275
:100CE0008091B101803230F4E091B101F0E0EF5633
:100CF000FE4F10826091B10170E0E091BB01F09174
:100D0000BC0181E991E009951092B1010ACF1092DE
:100D10000F0234CFEBE3F2E01382128288EE93E00D
:100D2000A0E0B0E084839583A683B78384E091E05C
:100D300091838083E7E4F2E01382128286E191E0FE
:100D4000918380838DE084838FEF85838CE086831D
:100D50008BE087838AE0808789E0818788E08287CB
:100D60001386148615861686178681E00C94330444
:100D7000789484B5826084BD84B5816084BD85B576
:100D8000826085BD85B5816085BD80916E00816082
:100D900080936E0010928100809181008260809328
:100DA000810080918100816080938100809180002A
:100DB0008160809380008091B10084608093B10055
:100DC0008091B00081608093B00080917A0084604F
:100DD00080937A0080917A00826080937A0080917B
:100DE0007A00816080937A0080917A008068809395
:100DF0007A001092C10082E00E94330460E083E038
:100E00000E94D4048EE191E00E94820360E087E0BA
:100E10000E94120160E086E00E9412011092C0015F
:100E20001092BF011092180210923A020E94C5015E
:100E30008CE890E09093BE018093BD018DE890E036
:100E40009093BC018093BB0181E08093170288E4FA
:100E5000809339028CEA90E00E947A0390E080E06F
:100E60000E947A031092180210923A028EEE90E0DD
:100E70000E947A0381E00E94040261E082E00E9405
:100E8000120161E083E00E9412012AE0A22EB12C3F
:100E900034E3E32E31E0F32E01EE11E047E2842E3D
:100EA00041E0942EDD24D39498E4C92EE5EBF0E0E4
:100EB0008491E1EAF0E0C491EDE8F0E0D491DD2323
:100EC00009F496C081110E94BB00ED2FF0E0EE0FF7
:100ED000FF1FE458FF4FA591B4918C91C82391E076
:100EE00080E009F490E0C92FD82FD093EA01C09395
:100EF000E9010E946801219709F055C1D0921702BB
:100F0000C09239021092180210923A028AEA90E0D6
:100F10000E947A0380E00E9404020E9443012B0198
:100F20003C0180911102811166C0D0921102D092D1
:100F300010028FEF80930F0210920E02D0920D02DA
:100F4000D092EC018091EC0180698093EC0180915A
:100F5000EB01813009F02FC11092EB010E94430197
:100F60002B013C018091EC018093BB008091130226
:100F700090911402A0911502B0911602892B8A2B30
:100F80008B2BA1F00E944301209113023091140297
:100F90004091150250911602641975098609970946
:100FA000261737074807590708F446C08091BC0048
:100FB00083FDD8CF85EC8093BC000E9443012B01B8
:100FC0003C0180911102813009F4F7C080910E023A
:100FD000823008F014C180910E02ADEEB1E0E1EC78
:100FE000F1E090E0981769F12D9121939F5FFACF7E
:100FF000D0E0C0E07ACF8091130290911402A091CA
:101000001502B0911602892B8A2B8B2B09F489CFFC
:101010000E94430120911302309114024091150265
:101020005091160264197509860997092617370722
:101030004807590708F075CF809112020E94E3011A
:1010400080E01092C0018093BF018BE392E00E9488
:101050000403C82F8BE392E00E94040387FB222441
:1010600020F8312C8C2F880F990B82299329F5E0D9
:10107000F89FE001F99FD00D1124C53BD1050CF07C
:1010800040C060E083E00E94E4000E94680160E0EC
:1010900082E00E94E4000E946801D7FFB2C0D195AF
:1010A000C195D1091F928FED8F93CE01B5010E949A
:1010B0005B099F938F937F936F939F928F921F9360
:1010C0000F930E9489098DB79EB70A960FB6F894C0
:1010D0009EBF0FBE8DBF0E942B0460E081E00E9486
:1010E000D40481E491E00E94820381EE91E00E94A9
:1010F000820361E081E00E94D40488E491E00E94D0
:101100008203CE01855B91098534910508F093C077
:1011100069E183E00E94E4000E94680160E082E0EF
:101120000E94E4000E9468011F928FED8F93CE0110
:10113000B5010E945B099F938F937F936F93FF92FA
:10114000EF921F930F930E9489090E942B0460E085
:1011500081E00E94D40481E491E00E94820381EE48
:1011600091E00E94820361E081E00E94D40482E564
:1011700091E00E9482038DB79EB70A960FB6F8944D
:101180009EBF0FBE8DBF8091E9019091EA0101974A
:1011900051F00E942B0460E083E00E94D40486E6B4
:1011A00091E00E94820380E090E0892B09F47ECEDA
:1011B0000E94000077CE85EEFECE809113029091C2
:1011C0001402A0911502B0911602892B8A2B8B2B49
:1011D00009F4F7CE0E9443012091130230911402CA
:1011E00040911502509116026419750986099709F4
:1011F000261737074807590708F0E3CE1DCF82E0CE
:10120000ECCE1F928FED8F93CE01B5010E945B094A
:101210009F938F937F936F93FF92EF921F930F9300
:101220000E948909EDB7FEB73A960FB6F894FEBF53
:101230000FBEEDBF50CFCA3FD1050CF4A4CF69E17A
:1012400083E00E94E4000E94680169E182E00E945C
:10125000E4000E9468011F928FED8F93CE01B501CB
:101260000E945B099F938F937F936F93FF92EF92FE
:101270001F930F930E9489090E942B0460E081E074
:101280000E94D40481E491E00E94820381EE91E007
:101290000E94820361E081E00E94D4048CE591E029
:1012A0000E948203EDB7FEB73A960FB6F894FEBFE0
:1012B0000FBEEDBF68CF97FB072E16F4009407D042
:1012C00077FD09D00E946F0907FC05D03EF4909588
:1012D00081959F4F0895709561957F4F0895AA1B42
:1012E000BB1B51E107C0AA1FBB1FA617B70710F011
:1012F000A61BB70B881F991F5A95A9F78095909543
:10130000BC01CD010895EE0FFF1F0590F491E02D73
:101310000994AEE0B0E0EFE8F9E00C94380C0D89E8
:101320001E8986E08C831A8309838FEF9FE79E8353
:101330008D83AE01475E5F4F6F89788DCE01019638
:101340000E94AC092F813885020F131FF80110820B
:101350002E96E4E00C94540CABE0B0E0E2EBF9E044
:101360000C942A0C7C013B018A01FC011782168235
:10137000838181FFC8C1CE0101965C01F701938191
:10138000F30193FD859193FF81913F01882309F437
:1013900053C1853239F493FD859193FF81913F01CB
:1013A000853229F4B70190E00E949C0BE7CF912C85
:1013B000212C312CFFE1F31538F08B3211F190F430
:1013C000803209F1833229F137FC3CC020ED280F2F
:1013D0002A3050F536FE20C08AE0989E200D112458
:1013E000922E06C08D3291F0803371F7689430F8F8
:1013F000F30193FD859193FF81913F018111DACF34
:1014000021C0689431F8689432F8F2CF689433F8C8
:10141000EFCF689434F8ECCFEAE02E9E200D112433
:10142000222E689435F8E4CF8E3229F436FC04C1BC
:10143000689436F8DDCF8C3619F4689437F8D8CF35
:101440008836B1F2982F9F7D95549330E0F0833623
:10145000A1F18337C1F1833509F063C02801F2E0BF
:101460004F0E511CF801C080D180692D70E036FC10
:1014700002C06FEF7FEFC6010E94860B4C0168949B
:1014800037F882010AC00C5F1F4FFFE3F9838824FD
:101490008394912C6501E89437F833FE2DC0522CCB
:1014A0008114910471F5552009F468CFB70180E2E9
:1014B00090E00E949C0B5A94F6CFF80180818983BA
:1014C0000E5F1F4FE4CF2801F2E04F0E511CF801D0
:1014D000C080D180692D70E036FC02C06FEF7FEFD5
:1014E000C6010E94910B4C018201D5CFB70180E269
:1014F00090E00E949C0B2A942814190409F0B0F77C
:10150000CECFF60137FC859137FE81916F01B7018F
:1015100090E00E949C0B51105A94F1E08F1A9108B0
:10152000BFCF843619F0893609F077C0F80137FE4D
:101530006BC060817181828193810C5F1F4FF32D9D
:10154000FF763F2E97FF09C0909580957095619525
:101550007F4F8F4F9F4F689437F82AE030E0A50106
:101560000E94CC0BC82ECA188C2C432C36FE0CC003
:10157000E89440F8C91440F434FE05C032FC03C0BE
:10158000F32DFE7E4F2E892C44FE95C0FE01EC0DFE
:10159000F11D8081803309F087C0242D297E422EE1
:1015A000842D8870582E43FC95C040FE8FC09C2C23
:1015B000821418F42C0C922C981844FE91C0B70198
:1015C00080E390E00E949C0B42FE09C088E790E017
:1015D00041FE02C088E590E0B7010E949C0BC9144F
:1015E00008F48AC0CA94D12C9FEFC91AD90ACA0C30
:1015F000DB1CF60182916F01B70190E00E949C0B09
:10160000AC14BD04B1F74FCF60817181072E000C7F
:10161000880B990B0E5F1F4F92CFD32CE894D4F810
:101620002AE030E0853739F1232D297FD22E8F36FD
:1016300001F148F48835A9F0F701868197812B964E
:10164000E2E10C94460C803749F08837A9F7D4FEC4
:1016500002C06894D2F820E130E00DC06894D4F85C
:10166000F6CF34FE03C0822F8660D82E20E132E010
:1016700002C028E030E0F801D7FE0FC06081718120
:10168000828193810C5F1F4FA5010E94CC0BC82E55
:10169000CA183D2CE89437F867CF6081718190E0DB
:1016A00080E00E5F1F4FF0CF42FC02C0839478CFE2
:1016B0008394839475CF842D867809F471CFF6CF07
:1016C000B70180E290E00E949C0B83948214C0F3E7
:1016D000512C73CF522C5818821408F46ECFF8CFC7
:1016E000842D867809F47BCF8BE241FE80E247FCB3
:1016F0008DE2B70190E071CFB70180E390E00E94E6
:101700009C0B9A946CCF8FEF9FEF99CFFC010590C3
:10171000615070400110D8F7809590958E0F9F1FF3
:101720000895FC016150704001900110D8F7809538
:1017300090958E0F9F1F08950F931F93CF93DF9364
:10174000182F092FEB018B8181FD09C01FEF0FEFCF
:10175000812F902FDF91CF911F910F91089582FFDC
:1017600014C02E813F818C819D81281739073CF45C
:10177000E881F981CF0101969983888310838E8156
:101780009F8101969F838E83E3CFE885F985812F22
:101790000995892BA1F3DACFFA01AA27283051F154
:1017A000203181F1E8946F936E7F6E5F7F4F8F4F92
:1017B0009F4FAF4FB1E03ED0B4E03CD0670F781FF1
:1017C000891F9A1FA11D680F791F8A1F911DA11DD6
:1017D0006A0F711D811D911DA11D20D009F468940F
:1017E0003F912AE0269F11243019305D3193DEF6B7
:1017F000CF010895462F4770405D4193B3E00FD06D
:10180000C9F7F6CF462F4F70405D4A3318F0495D57
:1018100031FD4052419302D0A9F7EACFB4E0A6953A
:101820009795879577956795BA95C9F7009761055C
:10183000710508959B01AC010A2E069457954795B2
:1018400037952795BA95C9F7620F731F841F951FA7
:10185000A01D08952F923F924F925F926F927F92B8
:101860008F929F92AF92BF92CF92DF92EF92FF92B0
:101870000F931F93CF93DF93CDB7DEB7CA1BDB0B5C
:101880000FB6F894DEBF0FBECDBF09942A88398801
:1018900048885F846E847D848C849B84AA84B98408
:1018A000C884DF80EE80FD800C811B81AA81B98114
:1018B000CE0FD11D0FB6F894DEBF0FBECDBFED0128
:0618C0000895F894FFCF2B
:1018C600000000004B031E037F03F402170304030A
:1018D600F50200000000E3048E007F039D014150E5
:1018E600414741444F20002D253032752E25317554
:1018F6002563430020253032752E25317525634337
:101906000054454D503A20004E4956454C203A2049
:1019160031004E4956454C203A2032004E49564534
:0E1926004C203A2033004150414741444F00CD
:00000001FF
