:020000040000FA
:100000000C9462000C948A000C948A000C948A0070
:100010000C948A000C948A000C948A000C948A0038
:100020000C948A000C948A000C948A000C948A0028
:100030000C948A000C948A000C948A000C948A0018
:100040000C94EC040C948A000C948A000C948A00A2
:100050000C948A000C948A000C948A000C948A00F8
:100060000C9436050C948A00000000002400270040
:100070002A0000000000250028002B0000000000DE
:1000800023002600290004040404040404040202DA
:100090000202020203030303030301020408102007
:1000A0004080010204081020010204081020000012
:1000B0000008000201000003040700000000000027
:1000C0000000550611241FBECFEFD8E0DEBFCDBF24
:1000D00011E0A0E0B1E0E4E2F8E102C005900D9289
:1000E000AE36B107D9F722E0AEE6B1E001C01D920D
:1000F000AF35B207E1F710E0C2E6D0E004C02197C7
:10010000FE010E943209C136D107C9F70E94830659
:100110000C94100C0C94000008950895AF92BF92B7
:10012000CF92DF92EF92FF920F931F93CF93DF93C3
:100130006C017B018B01040F151FEB015E01AE18F2
:10014000BF08C017D10759F06991D601ED91FC9114
:100150000190F081E02DC6010995892B79F7C50141
:10016000DF91CF911F910F91FF90EF90DF90CF9093
:10017000BF90AF900895833081F028F4813099F0DA
:100180008230A9F008958730A9F08830C9F0843012
:10019000B1F4809180008F7D03C0809180008F77C3
:1001A00080938000089584B58F7784BD089584B5C9
:1001B0008F7DFBCF8091B0008F778093B000089542
:1001C0008091B0008F7DF9CF1F93CF93DF93282FBD
:1001D00030E0F901E255FF4F8491F901E656FF4FF7
:1001E000D491F901EA57FF4FC491CC23A9F0162FFF
:1001F00081110E94BB00EC2FF0E0EE0FFF1FEE58C4
:10020000FF4FA591B4918FB7F894EC91111108C0EC
:10021000D095DE23DC938FBFDF91CF911F9108959E
:10022000DE2BF8CFCF93DF9390E0FC01E656FF4F33
:1002300024918A579F4FFC0184918823D1F090E04C
:10024000880F991FFC01E859FF4FA591B491FC015B
:10025000EE58FF4FC591D49161110EC09FB7F8942D
:100260008C91E22FE0958E238C932881E223E88302
:100270009FBFDF91CF9108958FB7F894EC91E22B57
:10028000EC938FBFF6CF3FB7F8948091B701909170
:10029000B801A091B901B091BA0126B5A89B05C0DB
:1002A0002F3F19F00196A11DB11D3FBFBA2FA92FF5
:1002B000982F8827BC01CD01620F711D811D911DF2
:1002C00042E0660F771F881F991F4A95D1F708955E
:1002D000089520918F01260F3327331F21323105D6
:1002E000ECF420911102FC0190E080E0243069F0F0
:1002F00082E00895A0918F012191AC0141595E4F98
:10030000A40FB52FB11D2C930196861798F38091F9
:100310008F01680F60938F0180E0089581E0089558
:100320001092110281E0809310021092EB0161E0C3
:1003300082E10E94E40061E083E10E94E400E9EBD5
:10034000F0E080818E7F808380818D7F808388E450
:100350008093B80085E48093BC000895CF93DF9329
:1003600091E090936E018823B9F0C091B800D091CC
:10037000BA008091BC008A7B8093BC0060E082E17F
:100380000E94E40060E083E10E94E4000E9490018A
:10039000D093BA00C093B800DF91CF9108958F92A7
:1003A0009F92AF92BF92CF92DF92EF92FF920F9304
:1003B0001F93CF93DF93D0913A02D13208F0D7C088
:1003C000182FC09139020E9443016B017C0180917A
:1003D000110281116BC082E0809311021093100210
:1003E0008FEF80930F0210920E02D0930D02A9E1BD
:1003F000B2E0EDEEF1E080E0D81391C01092EC0194
:100400008091EC01CC0FC82BC093EC018091EB01E3
:10041000813009F088C01092EB010E9443016B010A
:100420007C018091EC018093BB008091130290913C
:100430001402A0911502B0911602892B8A2B8B2BE6
:10044000A1F00E9443010091130210911402209127
:100450001502309116026C197D098E099F09061745
:1004600017072807390708F442C08091BC0083FDB4
:10047000D8CF85EC8093BC000E9443016B017C01C6
:1004800080911102823009F450C080910F028F3F99
:1004900009F46FC080910F02803209F46CC0809122
:1004A0000F02803309F469C084E026C080911302F2
:1004B00090911402A0911502B0911602892B8A2BFB
:1004C0008B2B09F484CF0E944301809013029090FB
:1004D0001402A0901502B09016026C197D098E09C5
:1004E0009F0986169706A806B90608F070CF809176
:1004F00012020E94AE0185E01092180210923A0298
:1005000010921702DF91CF911F910F91FF90EF9002
:10051000DF90CF90BF90AF909F908F9008959D9166
:1005200091938F5F69CF85EEA5CF80911302909153
:100530001402A0911502B0911602892B8A2B8B2BE5
:1005400009F49ECF0E9443010091130210911402FE
:1005500020911502309116026C197D098E099F09B0
:10056000061717072807390708F08ACFC0CF81E0A0
:10057000C3CF80E0C1CF82E0BFCF83E0BDCF08957D
:10058000E091C0018091BF01E81730F4F0E0EF5333
:10059000FE4F808190E008958FEF9FEF0895909136
:1005A000C0018091BF012FEF3FEF981748F4E92F6A
:1005B000F0E0EF53FE4F208130E09F5F9093C00149
:1005C000C90108958091BF019091C001891B990BC9
:1005D0000895CF92DF92EF92FF920F931F93CF93E4
:1005E000DF937C01CB018A0120911702222389F03D
:1005F000EB016B01C40ED51ECC15DD0569F06991C8
:10060000D701ED91FC910190F081E02DC701099592
:10061000F3CF642F0E946901C801DF91CF911F9130
:100620000F91FF90EF90DF90CF900895CF93DF93DD
:100630001F92CDB7DEB76983209117022223F9F00C
:1006400020913A02203258F021E030E0FC0133835F
:10065000228390E080E00F90DF91CF910895809108
:100660001802E82FF0E0E75EFD4F998190838F5FDD
:100670008093180280933A0281E090E0ECCF61E031
:10068000CE0101960E946901F7CF682F8BE392E0BB
:100690000C94160390E080E00895FC010190002086
:1006A000E9F73197AF01481B590BBC0187E492E091
:1006B0000C948E00CF93DF93EC0160E08E810E945A
:1006C000E40061E08E810E94E40060E08E810E947F
:1006D000E4008BE891E00197F1F7DF91CF91089565
:1006E000CF92DF92EF92FF920F931F93CF93DF93FE
:1006F0006C017C0187E0E80EF11CD0E0C0E0062F21
:1007000010E0B8010C2E02C0759567950A94E2F7C7
:100710006170F70181917F010E94E4002196C4304D
:10072000D10579F7C601DF91CF911F910F91FF900D
:10073000EF90DF90CF900C945A03CF92DF92EF921C
:10074000FF920F931F93CF93DF93EC01F62E642F4C
:100750008C810E94E4008D818F3F19F060E00E943F
:10076000E4000F2D10E08F8584FF25C06E0187E027
:10077000C80ED11CF12CE12CB8010E2C02C07595CD
:1007800067950A94E2F76170F60181916F010E940A
:10079000E400FFEFEF1AFF0A88E0E816F10461F7C2
:1007A000CE01DF91CF911F910F91FF90EF90DF90DD
:1007B000CF900C945A03B80184E0759567958A959B
:1007C000E1F7CE010E9470036F2DCE01DF91CF9132
:1007D0001F910F91FF90EF90DF90CF900C947003DA
:1007E00040E0682F87E492E00C949D0381E00E9432
:1007F000F0038BE39FE10197F1F70895CF93DF9327
:10080000823029F49091560298609093560280931A
:100810005A0210925B0280E480935C0280E1809334
:100820005D0280E580935E0261E080914B020E9450
:10083000120180914C028F3F19F061E00E94120179
:1008400061E080914D020E941201C7E4D2E09E0156
:10085000275432408091560284FD0BC084E090E022
:1008600021962817390744F461E08E810E94120115
:10087000EECF88E090E0F4CF8BE39DE00197F1F7B5
:1008800060E080914B020E94E40060E080914D02A4
:100890000E94E40080914C028F3F19F060E00E94BA
:1008A000E4008091560284FD34C063E087E492E066
:1008B0000E947003CBE4D6E4CE010197F1F763E028
:1008C00087E492E00E9470032197F1F763E087E4E8
:1008D00092E00E94700383E592E00197F1F762E0F5
:1008E00087E492E00E9470038091560280620E9429
:1008F000F00384E0809357028CE00E94F0030E9492
:10090000F60382E08093580286E0DF91CF910C9449
:10091000F00380620E94F0038BE496E40197F1F704
:100920008091560280620E94F00383E592E0019775
:10093000F1F78091560280620E94F003D5CF90912A
:100940005A02691710F06FEF690FE62FF0E0E95BCC
:10095000FD4F9489890F80680C94F00341E00E9458
:100960009D0381E090E0089585ED8093BC00809127
:10097000130290911402A0911502B09116020796ED
:10098000A11DB11D23E0B695A795979587952A954A
:10099000D1F72091BC0024FD03C0109211020895EC
:1009A0004091130250911402609115027091160249
:1009B000452B462B472B69F30097A105B10541F064
:1009C00025E32A95F1F700000197A109B109E1CFCC
:1009D000809112020C94AE011F920F920FB60F92EB
:1009E00011242F933F938F939F93AF93BF93809145
:1009F000B3019091B401A091B501B091B6013091CD
:100A0000B20123E0230F2D3758F50196A11DB11D2A
:100A10002093B2018093B3019093B401A093B501E8
:100A2000B093B6018091B7019091B801A091B9013E
:100A3000B091BA010196A11DB11D8093B7019093A9
:100A4000B801A093B901B093BA01BF91AF919F9142
:100A50008F913F912F910F900FBE0F901F9018957F
:100A600026E8230F0296A11DB11DD2CF1F920F922F
:100A70000FB60F9211242F933F934F935F936F9371
:100A80007F938F939F93AF93BF93EF93FF93809147
:100A9000B900887F803609F44AC0F0F5883209F43D
:100AA000A7C018F5803109F49BC0B8F4882309F475
:100AB000F9C0883009F494C0FF91EF91BF91AF91D4
:100AC0009F918F917F916F915F914F913F912F9166
:100AD0000F900FBE0F901F901895883109F488C0B1
:100AE000803251F780930F0214C0803409F49DC006
:100AF00040F48033B9F38833F9F680930F0285EC24
:100B0000B0C0803509F485C0883509F496C08834B2
:100B100099F60E94B404D0CF883909F48CC038F516
:100B2000883729F050F4883611F0803729F683E0B1
:100B3000809311021092B10157C0883809F47BC02C
:100B4000803919F0803809F0B7CF8091B101803237
:100B500008F071C0E091B10181E08E0F8093B10186
:100B60008091BB00F0E0EF56FE4F80833DC0803B9C
:100B700039F0E0F4803A09F479C0883A09F09CCF62
:100B800084E0809311021092900110928F01E09105
:100B9000BD01F091BE01099580918F0181110FC0B7
:100BA00081E080938F0110926F0109C0803C09F4AD
:100BB000A6CF883C09F4A3CF883B09F07DCFE09114
:100BC000900181E08E0F80939001F0E0E159FE4F9B
:100BD00080818093BB009091900180918F0129C00A
:100BE0008091EC018093BB0085EC8093BC0064CFC6
:100BF00090910E0280910D02981758F5E0910E0227
:100C000081E08E0F80930E02F0E0E351FE4F808171
:100C1000E9CFE0910E0281E08E0F80930E02809169
:100C2000BB00F0E0E351FE4F808390910E02809173
:100C30000D029817C8F285E8D8CFE0910E0281E046
:100C40008E0F80930E028091BB00F0E0E351FE4FC7
:100C500080838091100281115CCF81E08093EB0151
:100C600084EA8093BC001092110226CF85EC809319
:100C7000BC00109211028091B101803230F4E091F9
:100C8000B101F0E0EF56FE4F10826091B10170E0CB
:100C9000E091BB01F091BC0181E991E009951092CE
:100CA000B1010ACF10920F0234CFEBE3F2E01382CE
:100CB000128288EE93E0A0E0B0E084839583A6835F
:100CC000B78384E091E091838083E7E4F2E01382CC
:100CD000128286E191E0918380838DE084838FEF9F
:100CE00085838CE086838BE087838AE0808789E038
:100CF000818788E082871386148615861686178674
:100D000081E00C94FE03CF93DF9300D0CDB7DEB724
:100D1000789484B5826084BD84B5816084BD85B5D6
:100D2000826085BD85B5816085BD80916E008160E2
:100D300080936E0010928100809181008260809388
:100D4000810080918100816080938100809180008A
:100D50008160809380008091B10084608093B100B5
:100D60008091B00081608093B00080917A008460AF
:100D700080937A0080917A00826080937A008091DB
:100D80007A00816080937A0080917A0080688093F5
:100D90007A001092C10082E00E94FE0360E083E0CE
:100DA0000E949F048EE191E00E944D0360E087E085
:100DB0000E94120160E086E00E9412011092C001C0
:100DC0001092BF011092180210923A020E949001F4
:100DD0008CE890E09093BE018093BD018DE890E097
:100DE0009093BC018093BB0181E08093170288E45B
:100DF000809339028CEA90E00E94450390E080E005
:100E00000E9445031092180210923A028EEE90E072
:100E10000E94450381E00E94CF013AE0E32EF12CCD
:100E200044E3C42E41E0D42E3324339425E0222E13
:100E3000E5EBF0E08491E1EAF0E01491EDE8F0E018
:100E40000491002309F4BAC081110E94BB00E02F75
:100E5000F0E0EE0FFF1FE458FF4FA591B4918C9185
:100E6000182391E080E009F490E0092F182F1093E7
:100E7000EA010093E9010E9443012B013C0184E651
:100E8000882E912CA12CB12C0E9443016419750964
:100E900086099709683E734081059105A8F3F1E042
:100EA0008F1A9108A108B10828EE420E23E0521EC5
:100EB000611C711C81149104A104B10429F7013053
:100EC000110509F03FC13092170288E4809339027E
:100ED0001092180210923A028AEA90E00E944503AA
:100EE00080E00E94CF010E9443014B015C01809190
:100EF0001102811166C030921102309210028FEF00
:100F000080930F0210920E0230920D023092EC018B
:100F10008091EC0180698093EC018091EB0181303C
:100F200009F018C11092EB010E9443014B015C01D2
:100F30008091EC018093BB00809113029091140288
:100F4000A0911502B0911602892B8A2B8B2BA1F050
:100F50000E94430100911302109114022091150286
:100F600030911602681979098A099B090617170733
:100F70002807390708F446C08091BC0083FDD8CF0C
:100F800085EC8093BC000E9443014B015C01809181
:100F90001102813009F4E0C080910E02823008F025
:100FA000FDC080910E02ADEEB1E0E1ECF1E090E029
:100FB000981769F12D9121939F5FFACF10E000E01F
:100FC00056CF8091130290911402A0911502B09116
:100FD0001602892B8A2B8B2B09F489CF0E9443019F
:100FE0000091130210911402209115023091160203
:100FF000681979098A099B0906171707280739070D
:1010000008F075CF809112020E94AE0180E010922C
:10101000C0018093BF018BE392E00E94CF02182FA2
:101020008BE392E00E94CF0287FB882780F98983B7
:101030001A82812F880F990BE981FA818E2B9F2BC1
:10104000289E8001299E100D1124053B1105ACF549
:1010500017FFA6C01195019511091F928FED8F936F
:10106000C801B7010E940A099F938F937F936F93E2
:1010700027E231E03F932F93E1EEF1E0FF93EF930E
:101080000E9438090FB6F894DEBF0FBECDBF0E9494
:10109000F60360E081E00E949F0481E491E00E94F9
:1010A0004D0381EE91E00E944D0361E081E00E94DA
:1010B0009F0488E491E00E944D03C801855B91097B
:1010C0008534910508F07AC01F928FED8F93C80187
:1010D000B7010E940A099F938F937F936F93DF92CA
:1010E000CF92E1EEF1E0FF93EF930E9438090E9466
:1010F000F60360E081E00E949F0481E491E00E9499
:101100004D0381EE91E00E944D0361E081E00E9479
:101110009F0482E591E00E944D030FB6F894DEBF74
:101120000FBECDBF8091E9019091EA01019751F086
:101130000E94F60360E083E00E949F0486E691E04F
:101140000E944D03E0E0F0E0EF2B09F471CE0E9425
:1011500000006ACE85EE15CF8091130290911402A3
:10116000A0911502B0911602892B8A2B8B2B09F4C2
:101170000ECF0E944301009113021091140220919E
:10118000150230911602681979098A099B09061718
:1011900017072807390708F0FACE34CF82E003CFCB
:1011A0001F928FED8F93C801B7010E940A099F9388
:1011B0008F937F936F93DF92CF925ECF0A3F11059B
:1011C0000CF4B0CF1F928FED8F93C801B7010E942E
:1011D0000A099F938F937F936F93DF92CF92E1EEF3
:1011E000F1E0FF93EF930E9438090E94F60360E05C
:1011F00081E00E949F0481E491E00E944D0381EE12
:1012000091E00E944D0361E081E00E949F048CE523
:1012100091E081CF97FB072E16F4009407D077FD5D
:1012200009D00E941E0907FC05D03EF490958195D7
:101230009F4F0895709561957F4F0895AA1BBB1B22
:1012400051E107C0AA1FBB1FA617B70710F0A61BC6
:10125000B70B881F991F5A95A9F780959095BC01E7
:10126000CD010895EE0FFF1F0590F491E02D099434
:10127000AEE0B0E0EEE3F9E00C94E70B0D891E89D7
:1012800086E08C831A8309838FEF9FE79E838D838B
:10129000AE01475E5F4F6F89788DCE0101960E9447
:1012A0005B092F813885020F131FF80110822E96DB
:1012B000E4E00C94030CABE0B0E0E1E6F9E00C9460
:1012C000D90B7C013B018A01FC01178216828381C4
:1012D00081FFC8C1CE0101965C01F7019381F30142
:1012E00093FD859193FF81913F01882309F453C1B8
:1012F000853239F493FD859193FF81913F018532C9
:1013000029F4B70190E00E944B0BE7CF912C212CE0
:10131000312CFFE1F31538F08B3211F190F480326B
:1013200009F1833229F137FC3CC020ED280F2A3027
:1013300050F536FE20C08AE0989E200D1124922E92
:1013400006C08D3291F0803371F7689430F8F30164
:1013500093FD859193FF81913F018111DACF21C0E7
:10136000689431F8689432F8F2CF689433F8EFCF8C
:10137000689434F8ECCFEAE02E9E200D1124222E42
:10138000689435F8E4CF8E3229F436FC04C16894B1
:1013900036F8DDCF8C3619F4689437F8D8CF883614
:1013A000B1F2982F9F7D95549330E0F08336A1F1F0
:1013B0008337C1F1833509F063C02801F2E04F0E95
:1013C000511CF801C080D180692D70E036FC02C04C
:1013D0006FEF7FEFC6010E94350B4C01689437F820
:1013E00082010AC00C5F1F4FFFE3F98388248394B6
:1013F000912C6501E89437F833FE2DC0522C8114EE
:10140000910471F5552009F468CFB70180E290E0AE
:101410000E944B0B5A94F6CFF801808189830E5FAE
:101420001F4FE4CF2801F2E04F0E511CF801C0809D
:10143000D180692D70E036FC02C06FEF7FEFC601EE
:101440000E94400B4C018201D5CFB70180E290E0B1
:101450000E944B0B2A942814190409F0B0F7CECF40
:10146000F60137FC859137FE81916F01B70190E05D
:101470000E944B0B51105A94F1E08F1A9108BFCF84
:10148000843619F0893609F077C0F80137FE6BC051
:1014900060817181828193810C5F1F4FF32DFF76F4
:1014A0003F2E97FF09C090958095709561957F4F6D
:1014B0008F4F9F4F689437F82AE030E0A5010E94D3
:1014C0007B0BC82ECA188C2C432C36FE0CC0E8941B
:1014D00040F8C91440F434FE05C032FC03C0F32DBB
:1014E000FE7E4F2E892C44FE95C0FE01EC0DF11DB1
:1014F0008081803309F087C0242D297E422E842DDF
:101500008870582E43FC95C040FE8FC09C2C8214DE
:1015100018F42C0C922C981844FE91C0B70180E36B
:1015200090E00E944B0B42FE09C088E790E041FE2C
:1015300002C088E590E0B7010E944B0BC91408F483
:101540008AC0CA94D12C9FEFC91AD90ACA0CDB1CD5
:10155000F60182916F01B70190E00E944B0BAC1431
:10156000BD04B1F74FCF60817181072E000C880B4D
:10157000990B0E5F1F4F92CFD32CE894D4F82AE03A
:1015800030E0853739F1232D297FD22E8F3601F1B6
:1015900048F48835A9F0F701868197812B96E2E11E
:1015A0000C94F50B803749F08837A9F7D4FE02C0B8
:1015B0006894D2F820E130E00DC06894D4F8F6CFFA
:1015C00034FE03C0822F8660D82E20E132E002C0B4
:1015D00028E030E0F801D7FE0FC060817181828180
:1015E00093810C5F1F4FA5010E947B0BC82ECA1868
:1015F0003D2CE89437F867CF6081718190E080E0FE
:101600000E5F1F4FF0CF42FC02C0839478CF8394CB
:10161000839475CF842D867809F471CFF6CFB70106
:1016200080E290E00E944B0B83948214C0F3512C13
:1016300073CF522C5818821408F46ECFF8CF842D33
:10164000867809F47BCF8BE241FE80E247FC8DE295
:10165000B70190E071CFB70180E390E00E944B0B9F
:101660009A946CCF8FEF9FEF99CFFC01059061505A
:1016700070400110D8F7809590958E0F9F1F0895A8
:10168000FC016150704001900110D8F78095909551
:101690008E0F9F1F08950F931F93CF93DF93182FE3
:1016A000092FEB018B8181FD09C01FEF0FEF812F07
:1016B000902FDF91CF911F910F91089582FF14C059
:1016C0002E813F818C819D81281739073CF4E88168
:1016D000F981CF0101969983888310838E819F8140
:1016E00001969F838E83E3CFE885F985812F099545
:1016F000892BA1F3DACFFA01AA27283051F1203142
:1017000081F1E8946F936E7F6E5F7F4F8F4F9F4F95
:10171000AF4FB1E03ED0B4E03CD0670F781F891FD7
:101720009A1FA11D680F791F8A1F911DA11D6A0FA5
:10173000711D811D911DA11D20D009F468943F9158
:101740002AE0269F11243019305D3193DEF6CF0157
:101750000895462F4770405D4193B3E00FD0C9F71D
:10176000F6CF462F4F70405D4A3318F0495D31FD8A
:101770004052419302D0A9F7EACFB4E0A6959795DD
:10178000879577956795BA95C9F7009761057105B3
:1017900008959B01AC010A2E0694579547953795FD
:1017A0002795BA95C9F7620F731F841F951FA01D57
:1017B00008952F923F924F925F926F927F928F92F5
:1017C0009F92AF92BF92CF92DF92EF92FF920F93D0
:1017D0001F93CF93DF93CDB7DEB7CA1BDB0B0FB6DA
:1017E000F894DEBF0FBECDBF09942A883988488897
:1017F0005F846E847D848C849B84AA84B984C8842D
:10180000DF80EE80FD800C811B81AA81B981CE0F23
:10181000D11D0FB6F894DEBF0FBECDBFED01089508
:10182000F894FFCF000000001603E9024A03BF024C
:10183000E202CF02C00200000000AE048E004A03A4
:1018400068014150414741444F20002D25303275F9
:101850002E2531752563430020253032752E253124
:10186000752563430054454D503A20004E49564576
:101870004C203A2031004E4956454C203A20320047
:101880004E4956454C203A2033004150414741448F
:021890004F0007
:107E0000112484B714BE81FFF0D085E080938100F7
:107E100082E08093C00088E18093C10086E0809377
:107E2000C20080E18093C4008EE0C9D0259A86E02C
:107E300020E33CEF91E0309385002093840096BBD3
:107E4000B09BFECF1D9AA8958150A9F7CC24DD24C4
:107E500088248394B5E0AB2EA1E19A2EF3E0BF2EE7
:107E6000A2D0813461F49FD0082FAFD0023811F036
:107E7000013811F484E001C083E08DD089C08234E0
:107E800011F484E103C0853419F485E0A6D080C0E4
:107E9000853579F488D0E82EFF2485D0082F10E0AE
:107EA000102F00270E291F29000F111F8ED06801E7
:107EB0006FC0863521F484E090D080E0DECF843638
:107EC00009F040C070D06FD0082F6DD080E0C81688
:107ED00080E7D80618F4F601B7BEE895C0E0D1E017
:107EE00062D089930C17E1F7F0E0CF16F0E7DF06D8
:107EF00018F0F601B7BEE89568D007B600FCFDCFD4
:107F0000A601A0E0B1E02C9130E011968C91119780
:107F100090E0982F8827822B932B1296FA010C0160
:107F200087BEE89511244E5F5F4FF1E0A038BF0790
:107F300051F7F601A7BEE89507B600FCFDCF97BE46
:107F4000E89526C08437B1F42ED02DD0F82E2BD052
:107F50003CD0F601EF2C8F010F5F1F4F84911BD097
:107F6000EA94F801C1F70894C11CD11CFA94CF0C13
:107F7000D11C0EC0853739F428D08EE10CD085E9AC
:107F80000AD08FE07ACF813511F488E018D01DD067
:107F900080E101D065CF982F8091C00085FFFCCF94
:107FA0009093C60008958091C00087FFFCCF809118
:107FB000C00084FD01C0A8958091C6000895E0E648
:107FC000F0E098E1908380830895EDDF803219F02E
:107FD00088E0F5DFFFCF84E1DECF1F93182FE3DFCA
:107FE0001150E9F7F2DF1F91089580E0E8DFEE27F6
:047FF000FF270994CA
:027FFE00040479
:00000001FF
