:100000000C9462000C948A000C948A000C948A0070
:100010000C948A000C948A000C948A000C948A0038
:100020000C948A000C948A000C948A000C94290782
:100030000C948A000C948A000C948A000C948A0018
:100040000C94DF060C948A000C94AD060C94870681
:100050000C948A000C948A000C948A000C948A00F8
:100060000C948D070C948A000000000024002700E7
:100070002A0000000000250028002B0000000000DE
:1000800023002600290004040404040404040202DA
:100090000202020203030303030301020408102007
:1000A0004080010204081020010204081020000012
:1000B0000008000201000003040700000000000027
:1000C0000000AC0811241FBECFEFD8E0DEBFCDBFCB
:1000D00011E0A0E0B1E0ECE4FDE102C005900D927A
:1000E000AC3AB107D9F723E0ACEAB1E001C01D9208
:1000F000AD3BB207E1F710E0C2E6D0E004C02197C3
:10010000FE010E94A30CC136D107C9F70E94610904
:100110000C94A40E0C9400000895089596E0899F15
:10012000D0011124A65BBC4F90967C936E935F9791
:1001300091E091969C939197E091B703F091B80369
:100140009091B603992339F0309751F0811108C08E
:10015000809166030994309719F05C968C91FACFE0
:100160000895CF92DF92EF92FF920F931F9396E044
:10017000899FF0011124E65BFC4F11A2278D30A16D
:100180002130310551F178F02230310509F451C0A8
:100190002330310509F452C01F910F91FF90EF9069
:1001A000DF90CF9008956623B9F361E070E00E947C
:1001B0008E002FB7F89480913B0290913C02A09161
:1001C0003D02B0913E022FBF8093A2039093A30300
:1001D000A093A403B093A503DFCF9FB7F894C0907A
:1001E0003B02D0903C02E0903D02F0903E029FBF67
:1001F0000091A2031091A3032091A4033091A503C1
:10020000C01AD10AE20AF30A0091B4031091B503AF
:1002100030E020E00C151D052E053F0550F462E08E
:1002200070E01F910F91FF90EF90DF90CF900C94B2
:100230008E006111B1CF63E070E0F3CF70E060E059
:10024000F0CFAF92BF92CF92DF92EF92FF920F93D7
:100250001F93CF93DF936C017B018B01040F151F5C
:10026000EB015E01AE18BF08C017D10759F06991C4
:10027000D601ED91FC910190F081E02DC601099528
:10028000892B79F7C501DF91CF911F910F91FF90D5
:10029000EF90DF90CF90BF90AF900895FC01538D09
:1002A000448D252F30E0842F90E0821B930B541750
:1002B00010F0CF96089501970895FC01918D828DDD
:1002C000981761F0A28DAE0FBF2FB11D5D968C9176
:1002D000928D9F5F9F73928F90E008958FEF9FEFB5
:1002E0000895FC01918D828D981731F0828DE80F71
:1002F000F11D858D90E008958FEF9FEF0895FC012B
:10030000918D228D892F90E0805C9F4F821B9109F7
:100310008F739927089585E992E00E947F0121E07B
:10032000892B09F420E0822F089580E090E0892B4A
:1003300029F00E948B0181110C9400000895FC01AA
:10034000A48DA80FB92FB11DA35ABF4F2C91848D36
:1003500090E001968F739927848FA689B7892C9393
:10036000A089B1898C91837080648C93938D848DE6
:10037000981306C00288F389E02D80818F7D8083E9
:100380000895EF92FF920F931F93CF93DF93EC01A9
:1003900081E0888F9B8D8C8D98131AC0E889F9892C
:1003A000808185FF15C09FB7F894EE89FF8960832F
:1003B000E889F98980818370806480839FBF81E0B0
:1003C00090E0DF91CF911F910F91FF90EF900895F2
:1003D000F62E0B8D10E00F5F1F4F0F731127E02ECD
:1003E0008C8D8E110CC00FB607FCFACFE889F98905
:1003F000808185FFF5CFCE010E949F01F1CFEB8D6B
:10040000EC0FFD2FF11DE35AFF4FF0829FB7F894D8
:100410000B8FEA89FB8980818062CFCFCF93DF93F6
:10042000EC01888D8823B9F0AA89BB89E889F9890C
:100430008C9185FD03C0808186FD0DC00FB607FC41
:10044000F7CF8C9185FFF2CF808185FFEDCFCE0174
:100450000E949F01E9CFDF91CF910895833081F011
:1004600028F4813099F08230A9F008958730A9F0FE
:100470008830C9F08430B1F4809180008F7D03C052
:10048000809180008F7780938000089584B58F7766
:1004900084BD089584B58F7DFBCF8091B0008F77A8
:1004A0008093B00008958091B0008F7DF9CFCF93F5
:1004B000DF93282F30E0F901E255FF4F8491F901D5
:1004C000E656FF4FD491F901EA57FF4FC491CC2370
:1004D000A1F081110E942E02EC2FF0E0EE0FFF1F21
:1004E000E458FF4FA591B491EC91ED2381E090E0A9
:1004F00009F480E0DF91CF91089580E090E0FACF99
:10050000862F0C9457021F93CF93DF93282F30E050
:10051000F901E255FF4F8491F901E656FF4FD4915E
:10052000F901EA57FF4FC491CC23A9F0162F81118E
:100530000E942E02EC2FF0E0EE0FFF1FEE58FF4F4F
:10054000A591B4918FB7F894EC91111108C0D09592
:10055000DE23DC938FBFDF91CF911F910895DE2BB7
:10056000F8CF862F642F0C948302CF93DF9390E013
:10057000FC01E656FF4F24918A579F4FFC0184915E
:100580008823C9F090E0880F991FFC01E859FF4FBC
:10059000A591B491FC01EE58FF4FC591D491611122
:1005A0000DC09FB7F8948C91209582238C938881FD
:1005B000282328839FBFDF91CF910895623051F4A3
:1005C0009FB7F8943C91822F809583238C93E88188
:1005D0002E2BEFCF8FB7F894EC912E2B2C938FBF4F
:1005E000EACF862F642F0C94B5023FB7F894809120
:1005F000360290913702A0913802B091390226B5A7
:10060000A89B05C02F3F19F00196A11DB11D3FBF4A
:10061000BA2FA92F982F8827BC01CD01620F711D19
:10062000811D911D42E0660F771F881F991F4A9513
:10063000D1F708958F929F92AF92BF92CF92DF929F
:10064000EF92FF924B015C010E94F5026B017C016D
:100650000E94F5026C197D098E099F09683E73405E
:1006600081059105A8F321E0821A9108A108B1083B
:1006700088EEC80E83E0D81EE11CF11C81149104A1
:10068000A104B10429F7FF90EF90DF90CF90BF90C5
:10069000AF909F908F9008952091ED01260F332702
:1006A000331F21323105ECF420916B02FC0190E004
:1006B00080E0243069F082E00895A091ED0121915D
:1006C000AC0143535E4FA40FB52FB11D2C9301967F
:1006D000861798F38091ED01680F6093ED0180E03B
:1006E000089581E0089510926B0281E080936A0280
:1006F0001092450261E082E10E94830261E083E1A1
:100700000E948302E9EBF0E080818E7F808380810C
:100710008D7F808388E48093B80085E48093BC005B
:100720000895CF93DF9391E09093CC018823B9F0A3
:10073000C091B800D091BA008091BC008A7B8093B0
:10074000BC0060E082E10E94830260E083E10E94DD
:1007500083020E947303D093BA00C093B800DF9164
:10076000CF910895CF92DF92EF92FF920F931F9354
:10077000CF93DF93D091940281E0D13208F09CC0F6
:10078000C09193020E94F5026B017C0180916B0283
:1007900081116CC082E080936B0281E080936A02D9
:1007A0008FEF8093690210926802D0936702A3E7EB
:1007B000B2E0E7E4F2E080E0D8138DC01092460288
:1007C00080914602CC0FC82BC0934602809145020F
:1007D000813009F084C0109245020E94F5026B013D
:1007E0007C01809146028093BB0080916D029091C4
:1007F0006E02A0916F02B0917002892B8A2B8B2B15
:10080000A1F00E94F50200916D0210916E022091FC
:100810006F02309170026C197D098E099F090617CD
:1008200017072807390708F442C08091BC0083FDF0
:10083000D8CF85EC8093BC000E94F5026B017C014F
:1008400080916B02823009F44CC0809169028F3F25
:1008500009F469C080916902803209F466C0809110
:100860006902803309F463C084E026C080916D0280
:1008700090916E02A0916F02B0917002892B8A2B29
:100880008B2B09F483CF0E94F50200916D02109129
:100890006E0220916F02309170026C197D098E09F1
:1008A0009F09061717072807390708F06FCF8091AF
:1008B0006C020E94910385E01092720210929402E1
:1008C00010927102DF91CF911F910F91FF90EF90E5
:1008D000DF90CF9008959D9191938F5F6DCF85EEBE
:1008E000A9CF80916D0290916E02A0916F02B0919C
:1008F0007002892B8A2B8B2B09F4A2CF0E94F50260
:1009000000916D0210916E0220916F023091700281
:100910006C197D098E099F090617170728073907E3
:1009200008F08ECFC4CF80E0C7CF82E0C5CF83E090
:10093000C3CF0895E091440280914302E81730F458
:10094000F0E0E455FE4F808190E008958FEF9FEF37
:10095000089590914402809143022FEF3FEF981742
:1009600048F4E92FF0E0E455FE4F208130E09F5F2E
:1009700090934402C90108958091430290914402EA
:10098000891B990B0895CF92DF92EF92FF920F93FC
:100990001F93CF93DF937C01CB018A0120917102D9
:1009A000222389F0EB016B01C40ED51ECC15DD05A9
:1009B00069F06991D701ED91FC910190F081E02DF2
:1009C000C7010995F3CF642F0E944C03C801DF9142
:1009D000CF911F910F91FF90EF90DF90CF900895EE
:1009E000CF93DF931F92CDB7DEB769832091710259
:1009F0002223F9F020919402203258F021E030E0D7
:100A0000FC013383228390E080E00F90DF91CF914F
:100A1000089580917202E82FF0E0ED58FD4F998122
:100A200090838F5F809372028093940281E090E0C4
:100A3000ECCF61E0CE0101960E944C03F7CFFC01A0
:100A4000248131E03093710220939302109272025C
:100A5000109294028385682B82E393E00E94F00455
:100A60000C94B203089590E080E008950F931F93D3
:100A7000CF93DF93EC0188819981009759F02A8107
:100A80003B812617370730F081E0DF91CF911F912E
:100A90000F9108958B016F5F7F4F0E94CE0D0097DD
:100AA00059F0998388831B830A832C813D81232BF2
:100AB00059F7FC011082E8CF80E0E7CF85ED809305
:100AC000BC0080916D0290916E02A0916F02B09176
:100AD00070020796A11DB11D23E0B695A7959795C5
:100AE00087952A95D1F72091BC0024FD03C0109270
:100AF0006B02089540916D0250916E0260916F02F9
:100B000070917002452B462B472B69F30097A10586
:100B1000B10541F025E32A95F1F700000197A109FD
:100B2000B109E1CF80916C020C9491030F931F9354
:100B3000CF938C01C62F0E941F056C2F6460C801E3
:100B40000E941F056C2F6B7FC8010E941F0583EC5C
:100B500090E00197F1F7CF911F910F9108950F93B6
:100B60001F93CF93DF938C01D62FC42F607F642B0C
:100B70000E94960580E1D89FB00111246C2BC8011A
:100B8000DF91CF911F910F910C949605CF93DF9336
:100B9000CDB7DEB728970FB6F894DEBF0FBECDBF36
:100BA00098E0E9E1F1E0DE01119601900D929A954D
:100BB000E1F790914603961708F46FEF262F30E087
:100BC000220F331F41E050E04C0F5D1F240F351FF3
:100BD000F9016081680F606840E08EE393E0289639
:100BE0000FB6F894DEBF0FBECDBFDF91CF910C944E
:100BF000AF0540E061E08EE393E00E94AF058BE338
:100C00009FE10197F1F70895CF93DF93109244028B
:100C10001092430210927202109294020E94730387
:100C20008CE890E09093400280933F028DE890E042
:100C300090934202809341021092430380914803B3
:100C4000823018F098E0909343038093460362E368
:100C500070E080E090E00E941A03609149038EE307
:100C600093E00E941F0568EE73E080E090E00E9430
:100C70001A0360E38EE393E00E949605CBE4D6E48A
:100C8000CE010197F1F760E38EE393E00E949605B1
:100C90002197F1F760E38EE393E00E94960583E5E8
:100CA00092E00197F1F760E28EE393E00E949605EF
:100CB00060914303606240E08EE393E00E94AF05E1
:100CC00084E08093440340E06CE08EE393E00E9474
:100CD000AF050E94F90582E08093450340E066E09D
:100CE0008EE393E00E94AF0540E062E08EE393E084
:100CF0000E94AF058BE39FE10197F1F7DF91CF9160
:100D0000089541E00E94AF0581E090E008951F92B0
:100D10000F920FB60F9211242F933F934F935F932F
:100D20006F937F938F939F93AF93BF93EF93FF93B3
:100D300085E992E00E949F01FF91EF91BF91AF91F1
:100D40009F918F917F916F915F914F913F912F91E3
:100D50000F900FBE0F901F9018951F920F920FB615
:100D60000F9211242F938F939F93EF93FF93E09112
:100D7000A502F091A6028081E091AB02F091AC0255
:100D800082FD1BC090818091AE028F5F8F73209196
:100D9000AF02821741F0E091AE02F0E0EB56FD4F5A
:100DA000958F8093AE02FF91EF919F918F912F913C
:100DB0000F900FBE0F901F9018958081F4CF1F9257
:100DC0000F920FB60F9211242F933F938F939F93FF
:100DD000AF93BF9380913B0290913C02A0913D0262
:100DE000B0913E023091350223E0230F2D3758F5A4
:100DF0000196A11DB11D2093350280933B02909373
:100E00003C02A0933D02B0933E0280913602909145
:100E10003702A0913802B09139020196A11DB11D8F
:100E20008093360290933702A0933802B093390230
:100E3000BF91AF919F918F913F912F910F900FBED6
:100E40000F901F90189526E8230F0296A11DB11D43
:100E5000D2CF1F920F920FB60F9211242F933F9370
:100E60008F939F93EF93FF938091340287FF1FC06E
:100E70001092850010928400809134028F5F8093DD
:100E800034028091340287FF04C0809134028C3098
:100E9000ACF08091840090918500049680349C4948
:100EA00090F1809184009091850004962EC08091ED
:100EB000340287FFE1CF80913402DECF209184009D
:100EC00030918500E09134028E2FEE0F990BFC01DA
:100ED000EE0FFF1FE80FF91FE05FFD4F8181928148
:100EE000820F931F90938900809388008091340231
:100EF000FF91EF919F918F913F912F910F900FBE96
:100F00000F901F90189580E49CE99093890080933E
:100F100088008FEF80933402EBCF1F920F920FB6B1
:100F20000F9211242F933F934F935F936F937F936F
:100F30008F939F93AF93BF93EF93FF938091B900EB
:100F4000887F803609F44AC0F0F5883209F4A7C0DA
:100F500018F5803109F49BC0B8F4882309F4F9C06E
:100F6000883009F494C0FF91EF91BF91AF919F91A8
:100F70008F917F916F915F914F913F912F910F9042
:100F80000FBE0F901F901895883109F488C08032E9
:100F900051F78093690214C0803409F49DC040F475
:100FA0008033B9F38833F9F68093690285ECB0C0D9
:100FB000803509F485C0883509F496C0883499F6DF
:100FC0000E945E05D0CF883909F48CC038F5883787
:100FD00029F050F4883611F0803729F683E08093A9
:100FE0006B0210920F0257C0883809F47BC0803919
:100FF00019F0803809F0B7CF80910F02803208F0E5
:1010000071C0E0910F0281E08E0F80930F028091FA
:10101000BB00F0E0E151FE4F80833DC0803B39F0E2
:10102000E0F4803A09F479C0883A09F09CCF84E072
:1010300080936B021092EE011092ED01E0913F025D
:10104000F091400209958091ED0181110FC081E07E
:101050008093ED011092CD0109C0803C09F4A6CF28
:10106000883C09F4A3CF883B09F07DCFE091EE01E5
:1010700081E08E0F8093EE01F0E0E353FE4F80811C
:101080008093BB009091EE018091ED0129C0809189
:1010900046028093BB0085EC8093BC0064CF9091A6
:1010A000680280916702981758F5E091680281E024
:1010B0008E0F80936802F0E0E95BFD4F8081E9CFFD
:1010C000E091680281E08E0F809368028091BB00FE
:1010D000F0E0E95BFD4F80839091680280916702A8
:1010E0009817C8F285E8D8CFE091680281E08E0FAA
:1010F000809368028091BB00F0E0E95BFD4F808344
:1011000080916A0281115CCF81E08093450284EA7C
:101110008093BC0010926B0226CF85EC8093BC00BC
:1011200010926B0280910F02803230F4E0910F0236
:10113000F0E0E151FE4F108260910F0270E0E0910B
:101140004102F09142028FEE91E0099510920F0258
:101150000ACF1092690234CF10929802109297022F
:1011600088EE93E0A0E0B0E08093990290939A0219
:10117000A0939B02B0939C0225E231E0309396024B
:101180002093950225EC30E03093A2022093A10237
:1011900024EC30E03093A4022093A30220EC30E052
:1011A0003093A6022093A50221EC30E03093A802F0
:1011B0002093A70222EC30E03093AA022093A902E8
:1011C00026EC30E03093AC022093AB021092AE02DA
:1011D0001092AF021092B0021092B1021092350339
:1011E000109234038093360390933703A09338030F
:1011F000B093390387E391E09093330380933203F4
:1012000010924C031092500310924F03109251030E
:1012100085E591E090934B0380934A03E6E6F3E083
:101220001082148213821582369683E0E23AF80720
:10123000B9F783E091E09093AD038093AC0380E035
:1012400091E09093AF038093AE0384E08093B0036A
:1012500083E08093B10387E091E09093AB038093A8
:10126000AA038AE090E09093B3038093B20384EFE3
:1012700091E09093B5038093B4031092B803109259
:10128000B7031092A6031092A7031092A80310921E
:10129000A9031092B603109241031092400389E40F
:1012A00091E090933F0380933E0380E2809342035A
:1012B00080E18093470382E08093480310924903C2
:1012C0000895CF93DF93CDB7DEB728970FB6F89484
:1012D000DEBF0FBECDBF789484B5826084BD84B577
:1012E000816084BD85B5826085BD85B5816085BD21
:1012F00080916E00816080936E00109281008091D9
:101300008100826080938100809181008160809360
:101310008100809180008160809380008091B10085
:1013200084608093B1008091B00081608093B000B0
:1013300080917A00846080937A0080917A00826044
:1013400080937A0080917A00816080937A00809106
:101350007A00806880937A001092C100E091A50223
:10136000F091A60282E08083E091A102F091A202B6
:101370001082E091A302F091A4028FEC808310927E
:10138000AD02E091A902F091AA0286E08083E0918B
:10139000A702F091A802808180618083E091A7027A
:1013A000F091A802808188608083E091A702F0918B
:1013B000A802808180688083E091A702F091A80252
:1013C00080818F7D8083109244021092430210929C
:1013D0007202109294020E9473038CE890E0909342
:1013E000400280933F028DE890E090934202809308
:1013F00041020E9404060E94040688E0809349038B
:1014000060E08EE393E00E941F0560E083E00E94AD
:10141000C6054AE050E06BE571E08EE393E00E9480
:10142000210161E084E00E94C60548E050E066E6E4
:1014300071E08EE393E00E94210161E086E00E946A
:10144000B50261E085E00E94B502412C512C3201C9
:101450004394AA24AA94BA2C0E94F90560E085E07E
:101460000E94830260E083E00E94C6054AE050E0EB
:101470006BE571E08EE393E00E94210161E084E07E
:101480000E94C60548E050E066E671E08EE393E016
:101490000E94210164E670E080E090E00E941A035F
:1014A0001A8219821C821B821E821D8270E060E0FB
:1014B000CE0101960E94360529813A81811143C0EF
:1014C0002115310519F0C9010E94450D1A821982B2
:1014D0001E821D821C821B8251E05093B6038FB77F
:1014E000F89440913B0250913C0260913D02709112
:1014F0003E028FBF8091A6039091A703A091A803FD
:10150000B091A903481B590B6A0B7B0B8091B20366
:101510009091B303B0E0A0E084179507A607B70742
:1015200008F078C110E08091B0031817A0F4E091A2
:10153000AC03F091AD03E10FF11D62E080810E94E8
:10154000B5021F5FF0CF1E821D8260E771E0C90106
:101550000E949D0EC1CF312C8091B103381608F046
:1015600061C0E32CF12CE091AE03F091AF03EE0DDE
:10157000FF1D61E080810E94B502E091AE03F09111
:10158000AF03EE0DFF1D60E080810E948302D30156
:10159000C201032C04C0880F991FAA1FBB1F0A9405
:1015A000D2F74C016C01C094D094212C8091B003EF
:1015B000281608F5022D10E0E091AC03F091AD0380
:1015C000E00FF11F80810E9457020C5F1F4F000F38
:1015D000111FF801E65BFC4F892B41F4808191815A
:1015E00088299929918380832394E0CF80819181F8
:1015F0008C219D21F7CFE091AE03F091AF03EE0D6A
:10160000FF1D61E080810E9483028091AE03909172
:10161000AF03E80EF91E60E0F70180810E94B50279
:1016200033949ACF0AE413E07801F701878D90A1F3
:10163000892B21F4148EB68EA58E11A2F6E0EF0E42
:10164000F11C86E893E08E159F0579F7912C809127
:10165000B003981608F053C0812CC92CD12CCC0CA7
:10166000DD1CF601EE5AFC4F6F012091B10382168A
:1016700008F043C0F60160817181082C02C07695A4
:1016800067950A94E2F7929E90011124280D311D6E
:10169000EAE4F3E080E0458D568D2417350709F420
:1016A00019C18F5F36968A30B1F760FF24C0EAE433
:1016B000F3E090E080E0448D411118C0E091AA036E
:1016C000F091AB03E20FF31F408156E0589FF00109
:1016D000599FF00D1124E65BFC4F448F368F258F08
:1016E00010A2178E61E00E94B10005C001963696E7
:1016F0008A30910501F78394B8CF9394A8CF80E006
:10170000F80191A19111892F0A5F1F4F0E151F0536
:10171000B9F79FB7F89440913B0250913C02609119
:101720003D0270913E029FBF4093A6035093A703D2
:101730006093A8037093A903882309F46BC0809178
:101740006B03882309F466C08091690390916A0352
:10175000019709F05FC08091660380933A028A3254
:1017600009F066C08D819E81892B09F48EC061E7E6
:1017700071E089819A810E94940E892B09F085C0BD
:101780000E94F90560E083E00E94C6054AE050E04F
:1017900068E771E08EE393E00E94210161E085E05B
:1017A0000E94C60546E050E063E871E08EE393E0F6
:1017B0000E94210161E086E00E94830264EF71E0F3
:1017C00080E090E00E941A0381E080937102809390
:1017D000930210927202109294024BE050E06AE879
:1017E00071E082E393E00E94C3040E94B203898106
:1017F0009A81009711F00E94450D80E090E0892BBE
:1018000009F42ACE0E948B01882309F425CE0E9478
:10181000000022CE1092B60310923A0280913A0252
:10182000833209F059CE61E085E00E94830254CEF4
:101830008823A1F38F8318860D811E810F5F1F4FB0
:10184000B801CE0101960E943605882369F02981EE
:101850003A818D819E81BE01695F7F4F820F931F08
:101860000E949D0E1E830D834D815E8169817A8168
:1018700085E992E00E94210141E050E06FE671E0CD
:1018800085E992E00E942101C9CF0E94F90560E03C
:1018900084E00E94C60548E050E066E971E08EE30E
:1018A00093E00E94210161E083E00E94C6054BE0C5
:1018B00050E06FE971E08EE393E00E94210160E067
:1018C00086E00E94830264EF71E080E090E00E9475
:1018D0001A038DCF617007CF2F923F924F925F9284
:1018E0006F927F928F929F92AF92BF92CF92DF9230
:1018F000EF92FF920F931F93CF93DF93CDB7DEB795
:10190000CA1BDB0B0FB6F894DEBF0FBECDBF099428
:101910002A88398848885F846E847D848C849B847F
:10192000AA84B984C884DF80EE80FD800C811B818D
:10193000AA81B981CE0FD11D0FB6F894DEBF0FBEBC
:10194000CDBFED010895EE0FFF1F0590F491E02D3E
:1019500009940F931F93CF93DF938230910510F476
:1019600082E090E0E091BB03F091BC0330E020E026
:10197000B0E0A0E0309799F42115310509F44AC090
:10198000281B390B24303105D8F58A819B816115DC
:10199000710589F1FB0193838283FE0111C04081AF
:1019A00051810281138148175907E0F04817590700
:1019B00099F4109761F012960C93129713961C935A
:1019C0003296CF01DF91CF911F910F91089500932F
:1019D000BB031093BC03F4CF2115310551F042171E
:1019E000530738F0A901DB019A01BD01DF01F801BD
:1019F000C1CFEF01F9CF9093BC038093BB03CDCF50
:101A0000FE01E20FF31F8193919322503109398334
:101A10002883D7CF2091B9033091BA03232B41F407
:101A200020911501309116013093BA032093B90328
:101A300020911301309114012115310541F42DB786
:101A40003EB74091170150911801241B350BE091CE
:101A5000B903F091BA03E217F307A0F42E1B3F0B72
:101A60002817390778F0AC014E5F5F4F2417350710
:101A700048F04E0F5F1F5093BA034093B903819310
:101A800091939FCFF0E0E0E09CCFCF93DF9300975E
:101A9000E9F0FC01329713821282A091BB03B0914E
:101AA000BC03ED0130E020E01097A1F420813181EA
:101AB000820F931F2091B9033091BA032817390779
:101AC00009F061C0F093BA03E093B903DF91CF91BD
:101AD0000895EA01CE17DF07E8F54A815B819E0190
:101AE00041155105B1F7E901FB83EA834991599109
:101AF000C40FD51FEC17FD0761F480819181029618
:101B0000840F951FE90199838883828193819B8348
:101B10008A83F0E0E0E012968D919C9113970097F4
:101B2000B9F52D913C911197CD010296820F931F2B
:101B30002091B9033091BA032817390739F6309745
:101B400051F51092BC031092BB03B093BA03A0935B
:101B5000B903BCCFD383C28340815181840F951FC9
:101B6000C817D90761F44E5F5F4F88819981480F8C
:101B7000591F518340838A819B81938382832115DE
:101B8000310509F0B0CFF093BC03E093BB039ECFC7
:101B9000FD01DC01C0CF13821282D7CFB0E0A0E0FC
:101BA000E4EDFDE00C946E0C8C01009751F4CB0138
:101BB0000E94A90C8C01C801CDB7DEB7E0E10C94FE
:101BC0008A0CFC01E60FF71F9C0122503109E21735
:101BD000F30708F49DC0D901CD91DC911197C61788
:101BE000D70798F0C530D10530F3CE01049786179A
:101BF000970708F3C61BD70B2297C193D1936D9318
:101C00007C93CF010E94450DD6CF5B01AC1ABD0A73
:101C10004C018C0E9D1EA091BB03B091BC03512CB6
:101C2000412CF12CE12C109731F58091B903909162
:101C3000BA038815990509F05CC04616570608F0E6
:101C400058C08091130190911401009741F48DB711
:101C50009EB74091170150911801841B950BE8170E
:101C6000F90708F055C0F093BA03E093B903F901FE
:101C700071836083A0CF8D919C91119712966C9087
:101C8000129713967C901397A815B90559F56C0116
:101C900042E0C40ED11CCA14DB0420F1AC014A1985
:101CA0005B09DA011296159780F062827382518384
:101CB0004083D9016D937C93E114F10471F0D70155
:101CC0001396FC93EE93129776CF22968C0F9D1F5E
:101CD000F90191838083F301EFCFF093BC03E0938C
:101CE000BB0369CF4816590608F42C017D01D301C6
:101CF0009ACFCB010E94A90C7C01009749F0AE015C
:101D0000B8010E948B0EC8010E94450D870153CF78
:101D100010E000E050CFFB01DC0102C001900D9209
:101D200041505040D8F70895FB01DC018D9101909E
:101D300080190110D9F3990B0895FB01DC01019082
:0C1D40000D920020E1F70895F894FFCF09
:101D4C000D0C0B0A09080731323334353637383964
:101D5C002A30230000BD0380000000400014005412
:101D6C000000000000C10121014E010E027F015D47
:101D7C0001710100000000F004C30433059904BC98
:101D8C0004A9049A040000000081062101330532E5
:101D9C000500000000F102B10280024341534120D2
:101DAC00414359453100422D4730342D53320020E8
:101DBC0000323032313034004249454E56454E499E
:101DCC00444F0041204341534100436F727265639D
:101DDC00746F207832004552524F5220454E0043CA
:0C1DEC004F4E5452415345C3914100003A
:00000001FF
